{
  "contractName": "ERC721",
  "abi": [
    {
      "anonymous": false,
      "inputs": [
        {
          "indexed": true,
          "internalType": "address",
          "name": "_owner",
          "type": "address"
        },
        {
          "indexed": true,
          "internalType": "address",
          "name": "_approved",
          "type": "address"
        },
        {
          "indexed": true,
          "internalType": "uint256",
          "name": "_tokenId",
          "type": "uint256"
        }
      ],
      "name": "Approval",
      "type": "event"
    },
    {
      "anonymous": false,
      "inputs": [
        {
          "indexed": true,
          "internalType": "address",
          "name": "_from",
          "type": "address"
        },
        {
          "indexed": true,
          "internalType": "address",
          "name": "_to",
          "type": "address"
        },
        {
          "indexed": true,
          "internalType": "uint256",
          "name": "_tokenId",
          "type": "uint256"
        }
      ],
      "name": "Transfer",
      "type": "event"
    },
    {
      "inputs": [
        {
          "internalType": "address",
          "name": "_owner",
          "type": "address"
        }
      ],
      "name": "balanceOf",
      "outputs": [
        {
          "internalType": "uint256",
          "name": "",
          "type": "uint256"
        }
      ],
      "stateMutability": "view",
      "type": "function"
    },
    {
      "inputs": [
        {
          "internalType": "uint256",
          "name": "_tokenId",
          "type": "uint256"
        }
      ],
      "name": "ownerOf",
      "outputs": [
        {
          "internalType": "address",
          "name": "",
          "type": "address"
        }
      ],
      "stateMutability": "view",
      "type": "function"
    },
    {
      "inputs": [
        {
          "internalType": "address",
          "name": "_from",
          "type": "address"
        },
        {
          "internalType": "address",
          "name": "_to",
          "type": "address"
        },
        {
          "internalType": "uint256",
          "name": "_tokenId",
          "type": "uint256"
        }
      ],
      "name": "transferFrom",
      "outputs": [],
      "stateMutability": "nonpayable",
      "type": "function"
    },
    {
      "inputs": [
        {
          "internalType": "address",
          "name": "_approved",
          "type": "address"
        },
        {
          "internalType": "uint256",
          "name": "_tokenId",
          "type": "uint256"
        }
      ],
      "name": "approve",
      "outputs": [],
      "stateMutability": "payable",
      "type": "function"
    }
  ],
  "bytecode": "0x608060405234801561001057600080fd5b506106d7806100206000396000f3fe60806040526004361061003f5760003560e01c8063095ea7b31461004457806323b872dd146100595780636352211e1461007957806370a08231146100b6575b600080fd5b6100576100523660046105b8565b6100e4565b005b34801561006557600080fd5b506100576100743660046105e2565b610235565b34801561008557600080fd5b5061009961009436600461061e565b610258565b6040516001600160a01b0390911681526020015b60405180910390f35b3480156100c257600080fd5b506100d66100d1366004610637565b6102d8565b6040519081526020016100ad565b60006100ef82610258565b9050806001600160a01b0316836001600160a01b031614156101645760405162461bcd60e51b8152602060048201526024808201527f4572726f723a20417070726f76616c20746f207468652063757272656e74206f6044820152633bb732b960e11b60648201526084015b60405180910390fd5b336001600160a01b038216146101d95760405162461bcd60e51b815260206004820152603460248201527f4572726f723a204d6573736167652073656e646572206d75737420626520616e6044820152731037bbb732b91037b3103a3432903a37b5b2b71760611b606482015260840161015b565b60008281526002602052604080822080546001600160a01b0319166001600160a01b0387811691821790925591518593918516917f8c5be1e5ebec7d5bd14f71427d1e84f3dd0314c0f7b2291e5b200ac8c7c3b92591a4505050565b61023f338261034c565b61024857600080fd5b6102538383836103fe565b505050565b6000818152602081905260408120546001600160a01b0316806102d25760405162461bcd60e51b815260206004820152602c60248201527f4552433732313a20546f6b656e206f776e6572206d757374206265206120766160448201526b3634b21030b2323932b9b99760a11b606482015260840161015b565b92915050565b60006001600160a01b0382166103305760405162461bcd60e51b815260206004820181905260248201527f4552433732313a204d75737420626520612076616c696420616464726573732e604482015260640161015b565b506001600160a01b031660009081526001602052604090205490565b6000818152602081905260408120546001600160a01b03166103b05760405162461bcd60e51b815260206004820152601c60248201527f4572726f723a20546f6b656e20646f6573206e6f742065786973742e00000000604482015260640161015b565b60006103bb83610258565b9050806001600160a01b0316846001600160a01b031614806103f657506000838152600260205260409020546001600160a01b038581169116145b949350505050565b6001600160a01b0382166104685760405162461bcd60e51b815260206004820152602b60248201527f4572726f72202d20455243373231205472616e7366657220746f20746865207a60448201526a65726f206164647265737360a81b606482015260840161015b565b826001600160a01b031661047b82610258565b6001600160a01b0316146104ee5760405162461bcd60e51b815260206004820152603460248201527f547279696e6720746f207472616e73666572206120746f6b656e20746865206160448201527364647265737320646f6573206e6f74206f776e2160601b606482015260840161015b565b6001600160a01b03831660009081526001602052604081208054916105128361066f565b90915550506001600160a01b038216600090815260016020526040812080549161053b83610686565b909155505060008181526020819052604080822080546001600160a01b0319166001600160a01b0386811691821790925591518493918716917fddf252ad1be2c89b69c2b068fc378daa952ba7f163c4a11628f55a4df523b3ef91a4505050565b80356001600160a01b03811681146105b357600080fd5b919050565b600080604083850312156105cb57600080fd5b6105d48361059c565b946020939093013593505050565b6000806000606084860312156105f757600080fd5b6106008461059c565b925061060e6020850161059c565b9150604084013590509250925092565b60006020828403121561063057600080fd5b5035919050565b60006020828403121561064957600080fd5b6106528261059c565b9392505050565b634e487b7160e01b600052601160045260246000fd5b60008161067e5761067e610659565b506000190190565b600060001982141561069a5761069a610659565b506001019056fea2646970667358221220350193eb0b849250b5609fa7806d2ea3bb13159643dc2c99faf6ed1ce8e7dea564736f6c634300080a0033",
  "immutableReferences": {},
  "source": "// SPDX-License-Identifier: MIT\npragma solidity ^0.8.0;\n\n/// @title ERC-721 Non-Fungible Token Standard\n/// @dev See https://eips.ethereum.org/EIPS/eip-721\ncontract ERC721 {\n    /// @dev This emits when ownership of any NFT changes by any mechanism.\n    ///  This event emits when NFTs are created (`from` == 0) and destroyed\n    ///  (`to` == 0). Exception: during contract creation, any number of NFTs\n    ///  may be created and assigned without emitting Transfer. At the time of\n    ///  any transfer, the approved address for that NFT (if any) is reset to none.\n    event Transfer(\n        address indexed _from,\n        address indexed _to,\n        uint256 indexed _tokenId\n    );\n\n    /// @dev This emits when the approved address for an NFT is changed or\n    ///  reaffirmed. The zero address indicates there is no approved address.\n    ///  When a Transfer event emits, this also indicates that the approved\n    ///  address for that NFT (if any) is reset to none.\n    event Approval(\n        address indexed _owner,\n        address indexed _approved,\n        uint256 indexed _tokenId\n    );\n\n    /// Mapping from token id to the owner\n    mapping(uint256 => address) private tokenOwner;\n\n    /// Mapping from owner to number of owned tokens;\n    mapping(address => uint256) private ownedTokensCount;\n\n    /// Maping of tokens to approved addresses\n    mapping(uint256 => address) private tokenApprovals;\n\n    /// @notice Count all NFTs assigned to an owner\n    /// @dev NFTs assigned to the zero address are considered invalid, and this\n    ///  function throws for queries about the zero address.\n    /// @param _owner An address for whom to query the balance\n    /// @return The number of NFTs owned by `_owner`, possibly zero\n    function balanceOf(address _owner) public view returns (uint256) {\n        require(_owner != address(0), \"ERC721: Must be a valid address.\");\n        return ownedTokensCount[_owner];\n    }\n\n    /// @notice Find the owner of an NFT\n    /// @dev NFTs assigned to zero address are considered invalid, and queries\n    ///  about them do throw.\n    /// @param _tokenId The identifier for an NFT\n    /// @return The address of the owner of the NFT\n    function ownerOf(uint256 _tokenId) public view returns (address) {\n        address owner = tokenOwner[_tokenId];\n        require(\n            owner != address(0),\n            \"ERC721: Token owner must be a valid address.\"\n        );\n        return owner;\n    }\n\n    /// Verify whether the token already exists (has been minted)\n    function exists(uint256 tokenId) internal view returns (bool) {\n        // Return truthiness if the token owner's address is not zero\n        address owner = tokenOwner[tokenId];\n        return owner != address(0);\n    }\n\n    /*\n    Building out a minting function:\n        a. NFT to point to an address.\n        b. Keep track of token IDs.\n        c. Keep track of token owners' addresses to token IDs.\n        d. Keep track of how many tokens an owner address has.\n        e. Create an event that emits a transfer log:\n            contract address, where it is being minted to, the id.\n    */\n\n    /// Minting function\n    function mint(address _to, uint256 _tokenId) internal virtual {\n        require(_to != address(0), \"ERC721: Minting address must not be zero.\");\n        require(\n            !exists(_tokenId),\n            \"ERC721: The token has already been minted.\"\n        );\n\n        tokenOwner[_tokenId] = _to;\n        ownedTokensCount[_to] += 1;\n\n        // Emit ERC721 Transfer event\n        // Ref: https://eips.ethereum.org/EIPS/eip-721\n        emit Transfer(address(0), _to, _tokenId);\n    }\n\n    // this is not safe!\n    function _transferFrom(\n        address _from,\n        address _to,\n        uint256 _tokenId\n    ) internal {\n        require(\n            _to != address(0),\n            \"Error - ERC721 Transfer to the zero address\"\n        );\n        require(\n            ownerOf(_tokenId) == _from,\n            \"Trying to transfer a token the address does not own!\"\n        );\n\n        ownedTokensCount[_from]--;\n        ownedTokensCount[_to]++;\n\n        tokenOwner[_tokenId] = _to;\n\n        emit Transfer(_from, _to, _tokenId);\n    }\n\n    /// @notice Transfer ownership of an NFT -- THE CALLER IS RESPONSIBLE\n    ///  TO CONFIRM THAT `_to` IS CAPABLE OF RECEIVING NFTS OR ELSE\n    ///  THEY MAY BE PERMANENTLY LOST\n    /// @dev Throws unless `msg.sender` is the current owner, an authorized\n    ///  operator, or the approved address for this NFT. Throws if `_from` is\n    ///  not the current owner. Throws if `_to` is the zero address. Throws if\n    ///  `_tokenId` is not a valid NFT.\n    /// @param _from The current owner of the NFT\n    /// @param _to The new owner\n    /// @param _tokenId The NFT to transfer\n    function transferFrom(\n        address _from,\n        address _to,\n        uint256 _tokenId\n    ) public {\n        require(isApprovedOrOwner(msg.sender, _tokenId));\n        _transferFrom(_from, _to, _tokenId);\n    }\n\n    /// @notice Change or reaffirm the approved address for an NFT\n    /// @dev The zero address indicates there is no approved address.\n    ///  Throws unless `msg.sender` is the current NFT owner, or an authorized\n    ///  operator of the current owner.\n    /// @param _approved The new approved NFT controller\n    /// @param _tokenId The NFT to approve\n    function approve(address _approved, uint256 _tokenId) external payable {\n        // 1. require that the person approving is the owner.\n        // 2. We are approving an address to a token (tokenId).\n        // 3. Require that we can't approve sending tokens to ourselves (tokens of the owner to the current caller)\n        // 4. Update the map of the approval addresses.\n\n        address owner = ownerOf(_tokenId);\n        require(_approved != owner, \"Error: Approval to the current owner\");\n        require(\n            msg.sender == owner,\n            \"Error: Message sender must be an owner of the token.\"\n        );\n        tokenApprovals[_tokenId] = _approved;\n        emit Approval(owner, _approved, _tokenId);\n    }\n\n    // Is the address an owner or an approver of the token?\n    function isApprovedOrOwner(address _spender, uint256 _tokenId)\n        internal\n        view\n        returns (bool)\n    {\n        require(exists(_tokenId), \"Error: Token does not exist.\");\n        address owner = ownerOf(_tokenId);\n        return (_spender == owner || _spender == tokenApprovals[_tokenId]);\n    }\n}\n",
  "sourcePath": "/home/sergey/Projects/Education/nft-marketplace-starter-kit/src/contracts/ERC721.sol",
  "compiler": {
    "name": "solc",
    "version": "0.8.10+commit.fc410830.Emscripten.clang"
  },
  "schemaVersion": "3.4.3",
  "updatedAt": "2021-12-16T05:41:54.481Z",
  "devdoc": {
    "details": "See https://eips.ethereum.org/EIPS/eip-721",
    "events": {
      "Approval(address,address,uint256)": {
        "details": "This emits when the approved address for an NFT is changed or  reaffirmed. The zero address indicates there is no approved address.  When a Transfer event emits, this also indicates that the approved  address for that NFT (if any) is reset to none."
      },
      "Transfer(address,address,uint256)": {
        "details": "This emits when ownership of any NFT changes by any mechanism.  This event emits when NFTs are created (`from` == 0) and destroyed  (`to` == 0). Exception: during contract creation, any number of NFTs  may be created and assigned without emitting Transfer. At the time of  any transfer, the approved address for that NFT (if any) is reset to none."
      }
    },
    "kind": "dev",
    "methods": {
      "approve(address,uint256)": {
        "details": "The zero address indicates there is no approved address.  Throws unless `msg.sender` is the current NFT owner, or an authorized  operator of the current owner.",
        "params": {
          "_approved": "The new approved NFT controller",
          "_tokenId": "The NFT to approve"
        }
      },
      "balanceOf(address)": {
        "details": "NFTs assigned to the zero address are considered invalid, and this  function throws for queries about the zero address.",
        "params": {
          "_owner": "An address for whom to query the balance"
        },
        "returns": {
          "_0": "The number of NFTs owned by `_owner`, possibly zero"
        }
      },
      "ownerOf(uint256)": {
        "details": "NFTs assigned to zero address are considered invalid, and queries  about them do throw.",
        "params": {
          "_tokenId": "The identifier for an NFT"
        },
        "returns": {
          "_0": "The address of the owner of the NFT"
        }
      },
      "transferFrom(address,address,uint256)": {
        "details": "Throws unless `msg.sender` is the current owner, an authorized  operator, or the approved address for this NFT. Throws if `_from` is  not the current owner. Throws if `_to` is the zero address. Throws if  `_tokenId` is not a valid NFT.",
        "params": {
          "_from": "The current owner of the NFT",
          "_to": "The new owner",
          "_tokenId": "The NFT to transfer"
        }
      }
    },
    "title": "ERC-721 Non-Fungible Token Standard",
    "version": 1
  },
  "userdoc": {
    "kind": "user",
    "methods": {
      "approve(address,uint256)": {
        "notice": "Change or reaffirm the approved address for an NFT"
      },
      "balanceOf(address)": {
        "notice": "Count all NFTs assigned to an owner"
      },
      "ownerOf(uint256)": {
        "notice": "Find the owner of an NFT"
      },
      "transferFrom(address,address,uint256)": {
        "notice": "Transfer ownership of an NFT -- THE CALLER IS RESPONSIBLE  TO CONFIRM THAT `_to` IS CAPABLE OF RECEIVING NFTS OR ELSE  THEY MAY BE PERMANENTLY LOST"
      }
    },
    "version": 1
  }
}