{
  "contractName": "ERC721Connector",
  "abi": [
    {
      "inputs": [
        {
          "internalType": "string",
          "name": "name",
          "type": "string"
        },
        {
          "internalType": "string",
          "name": "symbol",
          "type": "string"
        }
      ],
      "stateMutability": "nonpayable",
      "type": "constructor"
    },
    {
      "anonymous": false,
      "inputs": [
        {
          "indexed": true,
          "internalType": "address",
          "name": "_from",
          "type": "address"
        },
        {
          "indexed": true,
          "internalType": "address",
          "name": "_to",
          "type": "address"
        },
        {
          "indexed": true,
          "internalType": "uint256",
          "name": "_tokenId",
          "type": "uint256"
        }
      ],
      "name": "Transfer",
      "type": "event"
    },
    {
      "inputs": [
        {
          "internalType": "address",
          "name": "_owner",
          "type": "address"
        }
      ],
      "name": "balanceOf",
      "outputs": [
        {
          "internalType": "uint256",
          "name": "",
          "type": "uint256"
        }
      ],
      "stateMutability": "view",
      "type": "function"
    },
    {
      "inputs": [],
      "name": "name",
      "outputs": [
        {
          "internalType": "string",
          "name": "",
          "type": "string"
        }
      ],
      "stateMutability": "view",
      "type": "function"
    },
    {
      "inputs": [
        {
          "internalType": "uint256",
          "name": "_tokenId",
          "type": "uint256"
        }
      ],
      "name": "ownerOf",
      "outputs": [
        {
          "internalType": "address",
          "name": "",
          "type": "address"
        }
      ],
      "stateMutability": "view",
      "type": "function"
    },
    {
      "inputs": [],
      "name": "symbol",
      "outputs": [
        {
          "internalType": "string",
          "name": "",
          "type": "string"
        }
      ],
      "stateMutability": "view",
      "type": "function"
    },
    {
      "inputs": [],
      "name": "totalSupply",
      "outputs": [
        {
          "internalType": "uint256",
          "name": "",
          "type": "uint256"
        }
      ],
      "stateMutability": "view",
      "type": "function"
    }
  ],
  "bytecode": "0x608060405234801561001057600080fd5b506040516105e73803806105e783398101604081905261002f916101bf565b815182908290610046906006906020850190610064565b50805161005a906007906020840190610064565b505050505061025d565b82805461007090610222565b90600052602060002090601f01602090048101928261009257600085556100d8565b82601f106100ab57805160ff19168380011785556100d8565b828001600101855582156100d8579182015b828111156100d85782518255916020019190600101906100bd565b506100e49291506100e8565b5090565b5b808211156100e457600081556001016100e9565b634e487b7160e01b600052604160045260246000fd5b600082601f83011261012457600080fd5b81516001600160401b038082111561013e5761013e6100fd565b604051601f8301601f19908116603f01168101908282118183101715610166576101666100fd565b8160405283815260209250868385880101111561018257600080fd5b600091505b838210156101a45785820183015181830184015290820190610187565b838211156101b55760008385830101525b9695505050505050565b600080604083850312156101d257600080fd5b82516001600160401b03808211156101e957600080fd5b6101f586838701610113565b9350602085015191508082111561020b57600080fd5b5061021885828601610113565b9150509250929050565b600181811c9082168061023657607f821691505b6020821081141561025757634e487b7160e01b600052602260045260246000fd5b50919050565b61037b8061026c6000396000f3fe608060405234801561001057600080fd5b50600436106100575760003560e01c806306fdde031461005c57806318160ddd1461007a5780636352211e1461008c57806370a08231146100b757806395d89b41146100ca575b600080fd5b6100646100d2565b604051610071919061026c565b60405180910390f35b6002545b604051908152602001610071565b61009f61009a3660046102c1565b610164565b6040516001600160a01b039091168152602001610071565b61007e6100c53660046102da565b6101e9565b61006461025d565b6060600680546100e19061030a565b80601f016020809104026020016040519081016040528092919081815260200182805461010d9061030a565b801561015a5780601f1061012f5761010080835404028352916020019161015a565b820191906000526020600020905b81548152906001019060200180831161013d57829003601f168201915b5050505050905090565b6000818152602081905260408120546001600160a01b0316806101e35760405162461bcd60e51b815260206004820152602c60248201527f4552433732313a20546f6b656e206f776e6572206d757374206265206120766160448201526b3634b21030b2323932b9b99760a11b60648201526084015b60405180910390fd5b92915050565b60006001600160a01b0382166102415760405162461bcd60e51b815260206004820181905260248201527f4552433732313a204d75737420626520612076616c696420616464726573732e60448201526064016101da565b506001600160a01b031660009081526001602052604090205490565b6060600780546100e19061030a565b600060208083528351808285015260005b818110156102995785810183015185820160400152820161027d565b818111156102ab576000604083870101525b50601f01601f1916929092016040019392505050565b6000602082840312156102d357600080fd5b5035919050565b6000602082840312156102ec57600080fd5b81356001600160a01b038116811461030357600080fd5b9392505050565b600181811c9082168061031e57607f821691505b6020821081141561033f57634e487b7160e01b600052602260045260246000fd5b5091905056fea2646970667358221220eaea799f0e405f6b9f1bbd78ee527496791eb3d6c1236e661917b4d353b8a72664736f6c634300080a0033",
  "immutableReferences": {},
  "source": "// SPDX-License-Identifier: MIT\npragma solidity ^0.8.0;\n\nimport \"./ERC721Enumerable.sol\";\nimport \"./ERC721Metadata.sol\";\n\ncontract ERC721Connector is ERC721Enumerable, ERC721Metadata {\n    constructor(string memory name, string memory symbol)\n        ERC721Metadata(name, symbol)\n    {}\n}\n",
  "sourcePath": "/home/sergey/Projects/Education/nft-marketplace-starter-kit/src/contracts/ERC721Connector.sol",
  "compiler": {
    "name": "solc",
    "version": "0.8.10+commit.fc410830.Emscripten.clang"
  },
  "schemaVersion": "3.4.3",
  "updatedAt": "2021-12-15T08:28:43.940Z",
  "devdoc": {
    "kind": "dev",
    "methods": {
      "balanceOf(address)": {
        "details": "NFTs assigned to the zero address are considered invalid, and this  function throws for queries about the zero address.",
        "params": {
          "_owner": "An address for whom to query the balance"
        },
        "returns": {
          "_0": "The number of NFTs owned by `_owner`, possibly zero"
        }
      },
      "ownerOf(uint256)": {
        "details": "NFTs assigned to zero address are considered invalid, and queries  about them do throw.",
        "params": {
          "_tokenId": "The identifier for an NFT"
        },
        "returns": {
          "_0": "The address of the owner of the NFT"
        }
      },
      "totalSupply()": {
        "returns": {
          "_0": "A count of valid NFTs tracked by this contract, where each one of  them has an assigned and queryable owner not equal to the zero address"
        }
      }
    },
    "version": 1
  },
  "userdoc": {
    "kind": "user",
    "methods": {
      "balanceOf(address)": {
        "notice": "Count all NFTs assigned to an owner"
      },
      "name()": {
        "notice": "name getter "
      },
      "ownerOf(uint256)": {
        "notice": "Find the owner of an NFT"
      },
      "symbol()": {
        "notice": "sumbol getter "
      },
      "totalSupply()": {
        "notice": "Count NFTs tracked by this contract"
      }
    },
    "version": 1
  }
}