{
  "contractName": "ERC721",
  "abi": [
    {
      "inputs": [],
      "stateMutability": "nonpayable",
      "type": "constructor"
    },
    {
      "anonymous": false,
      "inputs": [
        {
          "indexed": true,
          "internalType": "address",
          "name": "_owner",
          "type": "address"
        },
        {
          "indexed": true,
          "internalType": "address",
          "name": "_approved",
          "type": "address"
        },
        {
          "indexed": true,
          "internalType": "uint256",
          "name": "_tokenId",
          "type": "uint256"
        }
      ],
      "name": "Approval",
      "type": "event"
    },
    {
      "anonymous": false,
      "inputs": [
        {
          "indexed": true,
          "internalType": "address",
          "name": "_from",
          "type": "address"
        },
        {
          "indexed": true,
          "internalType": "address",
          "name": "_to",
          "type": "address"
        },
        {
          "indexed": true,
          "internalType": "uint256",
          "name": "_tokenId",
          "type": "uint256"
        }
      ],
      "name": "Transfer",
      "type": "event"
    },
    {
      "inputs": [
        {
          "internalType": "bytes4",
          "name": "interfaceID",
          "type": "bytes4"
        }
      ],
      "name": "supportsInterface",
      "outputs": [
        {
          "internalType": "bool",
          "name": "",
          "type": "bool"
        }
      ],
      "stateMutability": "view",
      "type": "function"
    },
    {
      "inputs": [
        {
          "internalType": "address",
          "name": "_owner",
          "type": "address"
        }
      ],
      "name": "balanceOf",
      "outputs": [
        {
          "internalType": "uint256",
          "name": "",
          "type": "uint256"
        }
      ],
      "stateMutability": "view",
      "type": "function"
    },
    {
      "inputs": [
        {
          "internalType": "uint256",
          "name": "_tokenId",
          "type": "uint256"
        }
      ],
      "name": "ownerOf",
      "outputs": [
        {
          "internalType": "address",
          "name": "",
          "type": "address"
        }
      ],
      "stateMutability": "view",
      "type": "function"
    },
    {
      "inputs": [
        {
          "internalType": "address",
          "name": "_from",
          "type": "address"
        },
        {
          "internalType": "address",
          "name": "_to",
          "type": "address"
        },
        {
          "internalType": "uint256",
          "name": "_tokenId",
          "type": "uint256"
        }
      ],
      "name": "transferFrom",
      "outputs": [],
      "stateMutability": "payable",
      "type": "function"
    },
    {
      "inputs": [
        {
          "internalType": "address",
          "name": "_approved",
          "type": "address"
        },
        {
          "internalType": "uint256",
          "name": "_tokenId",
          "type": "uint256"
        }
      ],
      "name": "approve",
      "outputs": [],
      "stateMutability": "payable",
      "type": "function"
    }
  ],
  "bytecode": "0x608060405234801561001057600080fd5b5061003a7f01ffc9a7a5cef8baa21ed3c5c0d7e23accb804b619e9333b597f47a0d84076e2610068565b6100637f9a12eb6555c7c6f8383403d77d158b368cb8c65409c727ed6db5abf7a7a7e2a1610068565b6100eb565b6001600160e01b031981811614156100c65760405162461bcd60e51b815260206004820152601a60248201527f4552433136353a20496e76616c696420696e746572666163652e000000000000604482015260640160405180910390fd5b6001600160e01b0319166000908152602081905260409020805460ff19166001179055565b61083c806100fa6000396000f3fe60806040526004361061004a5760003560e01c806301ffc9a71461004f578063095ea7b31461009e57806323b872dd146100b35780636352211e146100c657806370a08231146100fe575b600080fd5b34801561005b57600080fd5b5061008961006a366004610706565b6001600160e01b03191660009081526020819052604090205460ff1690565b60405190151581526020015b60405180910390f35b6100b16100ac366004610753565b61012c565b005b6100b16100c136600461077d565b61027d565b3480156100d257600080fd5b506100e66100e13660046107b9565b6102a0565b6040516001600160a01b039091168152602001610095565b34801561010a57600080fd5b5061011e6101193660046107d2565b610320565b604051908152602001610095565b6000610137826102a0565b9050806001600160a01b0316836001600160a01b031614156101ac5760405162461bcd60e51b8152602060048201526024808201527f4572726f723a20417070726f76616c20746f207468652063757272656e74206f6044820152633bb732b960e11b60648201526084015b60405180910390fd5b336001600160a01b038216146102215760405162461bcd60e51b815260206004820152603460248201527f4572726f723a204d6573736167652073656e646572206d75737420626520616e6044820152731037bbb732b91037b3103a3432903a37b5b2b71760611b60648201526084016101a3565b60008281526003602052604080822080546001600160a01b0319166001600160a01b0387811691821790925591518593918516917f8c5be1e5ebec7d5bd14f71427d1e84f3dd0314c0f7b2291e5b200ac8c7c3b92591a4505050565b6102873382610406565b61029057600080fd5b61029b8383836104b8565b505050565b6000818152600160205260408120546001600160a01b03168061031a5760405162461bcd60e51b815260206004820152602c60248201527f4552433732313a20546f6b656e206f776e6572206d757374206265206120766160448201526b3634b21030b2323932b9b99760a11b60648201526084016101a3565b92915050565b60006001600160a01b0382166103785760405162461bcd60e51b815260206004820181905260248201527f4552433732313a204d75737420626520612076616c696420616464726573732e60448201526064016101a3565b6001600160a01b03821660009081526002602052604090819020905163d602012f60e01b8152600481019190915273__Counters______________________________9063d602012f90602401602060405180830381865af41580156103e2573d6000803e3d6000fd5b505050506040513d601f19601f8201168201806040525081019061031a91906107ed565b6000818152600160205260408120546001600160a01b031661046a5760405162461bcd60e51b815260206004820152601c60248201527f4572726f723a20546f6b656e20646f6573206e6f742065786973742e0000000060448201526064016101a3565b6000610475836102a0565b9050806001600160a01b0316846001600160a01b031614806104b057506000838152600360205260409020546001600160a01b038581169116145b949350505050565b6001600160a01b0382166105225760405162461bcd60e51b815260206004820152602b60248201527f4572726f72202d20455243373231205472616e7366657220746f20746865207a60448201526a65726f206164647265737360a81b60648201526084016101a3565b826001600160a01b0316610535826102a0565b6001600160a01b0316146105a85760405162461bcd60e51b815260206004820152603460248201527f547279696e6720746f207472616e73666572206120746f6b656e20746865206160448201527364647265737320646f6573206e6f74206f776e2160601b60648201526084016101a3565b6001600160a01b038316600090815260026020526040908190209051636945b91f60e11b8152600481019190915273__Counters______________________________9063d28b723e9060240160006040518083038186803b15801561060d57600080fd5b505af4158015610621573d6000803e3d6000fd5b5050506001600160a01b03831660009081526002602052604090819020905163233c18b960e11b815273__Counters______________________________92506346783172916106779160040190815260200190565b60006040518083038186803b15801561068f57600080fd5b505af41580156106a3573d6000803e3d6000fd5b50505060008281526001602052604080822080546001600160a01b0319166001600160a01b0387811691821790925591518594509192908716917fddf252ad1be2c89b69c2b068fc378daa952ba7f163c4a11628f55a4df523b3ef9190a4505050565b60006020828403121561071857600080fd5b81356001600160e01b03198116811461073057600080fd5b9392505050565b80356001600160a01b038116811461074e57600080fd5b919050565b6000806040838503121561076657600080fd5b61076f83610737565b946020939093013593505050565b60008060006060848603121561079257600080fd5b61079b84610737565b92506107a960208501610737565b9150604084013590509250925092565b6000602082840312156107cb57600080fd5b5035919050565b6000602082840312156107e457600080fd5b61073082610737565b6000602082840312156107ff57600080fd5b505191905056fea26469706673582212208c16a407872c577ec6bdb7347421fca27e28c5a741e41f09a60e58de15b5420a64736f6c634300080b0033",
  "immutableReferences": {},
  "source": "// SPDX-License-Identifier: MIT\npragma solidity ^0.8.0;\n\nimport \"./ERC165.sol\";\nimport \"./interfaces/IERC721.sol\";\nimport \"./libraries/Counters.sol\";\n\n/// @title ERC-721 Non-Fungible Token Standard\n/// @dev See https://eips.ethereum.org/EIPS/eip-721\ncontract ERC721 is ERC165, IERC721 {\n    using SafeMath for uint256;\n    using Counters for Counters.Counter;\n    /// Mapping from token id to the owner\n    mapping(uint256 => address) private tokenOwner;\n\n    /// Mapping from owner to number of owned tokens;\n    mapping(address => Counters.Counter) private ownedTokensCount;\n\n    /// Maping of tokens to approved addresses\n    mapping(uint256 => address) private tokenApprovals;\n\n    constructor() {\n        registerInterface(\n            bytes4(\n                keccak256(\"balanceOf(bytes4)\") ^\n                    keccak256(\"ownerOf(bytes4)\") ^\n                    keccak256(\"function transferFrom(bytes4)\")\n            )\n        );\n    }\n\n    /// @notice Count all NFTs assigned to an owner\n    /// @dev NFTs assigned to the zero address are considered invalid, and this\n    ///  function throws for queries about the zero address.\n    /// @param _owner An address for whom to query the balance\n    /// @return The number of NFTs owned by `_owner`, possibly zero\n    function balanceOf(address _owner) public view override returns (uint256) {\n        require(_owner != address(0), \"ERC721: Must be a valid address.\");\n        return ownedTokensCount[_owner].current();\n    }\n\n    /// @notice Find the owner of an NFT\n    /// @dev NFTs assigned to zero address are considered invalid, and queries\n    ///  about them do throw.\n    /// @param _tokenId The identifier for an NFT\n    /// @return The address of the owner of the NFT\n    function ownerOf(uint256 _tokenId) public view override returns (address) {\n        address owner = tokenOwner[_tokenId];\n        require(\n            owner != address(0),\n            \"ERC721: Token owner must be a valid address.\"\n        );\n        return owner;\n    }\n\n    /// Verify whether the token already exists (has been minted)\n    function exists(uint256 tokenId) internal view returns (bool) {\n        // Return truthiness if the token owner's address is not zero\n        address owner = tokenOwner[tokenId];\n        return owner != address(0);\n    }\n\n    /*\n    Building out a minting function:\n        a. NFT to point to an address.\n        b. Keep track of token IDs.\n        c. Keep track of token owners' addresses to token IDs.\n        d. Keep track of how many tokens an owner address has.\n        e. Create an event that emits a transfer log:\n            contract address, where it is being minted to, the id.\n    */\n\n    /// Minting function\n    function mint(address _to, uint256 _tokenId) internal virtual {\n        require(_to != address(0), \"ERC721: Minting address must not be zero.\");\n        require(\n            !exists(_tokenId),\n            \"ERC721: The token has already been minted.\"\n        );\n\n        tokenOwner[_tokenId] = _to;\n        ownedTokensCount[_to].increment();\n\n        // Emit ERC721 Transfer event\n        // Ref: https://eips.ethereum.org/EIPS/eip-721\n        emit Transfer(address(0), _to, _tokenId);\n    }\n\n    // this is not safe!\n    function _transferFrom(\n        address _from,\n        address _to,\n        uint256 _tokenId\n    ) internal {\n        require(\n            _to != address(0),\n            \"Error - ERC721 Transfer to the zero address\"\n        );\n        require(\n            ownerOf(_tokenId) == _from,\n            \"Trying to transfer a token the address does not own!\"\n        );\n\n        ownedTokensCount[_from].decrement();\n        ownedTokensCount[_to].increment();\n\n        tokenOwner[_tokenId] = _to;\n\n        emit Transfer(_from, _to, _tokenId);\n    }\n\n    /// @notice Transfer ownership of an NFT -- THE CALLER IS RESPONSIBLE\n    ///  TO CONFIRM THAT `_to` IS CAPABLE OF RECEIVING NFTS OR ELSE\n    ///  THEY MAY BE PERMANENTLY LOST\n    /// @dev Throws unless `msg.sender` is the current owner, an authorized\n    ///  operator, or the approved address for this NFT. Throws if `_from` is\n    ///  not the current owner. Throws if `_to` is the zero address. Throws if\n    ///  `_tokenId` is not a valid NFT.\n    /// @param _from The current owner of the NFT\n    /// @param _to The new owner\n    /// @param _tokenId The NFT to transfer\n    function transferFrom(\n        address _from,\n        address _to,\n        uint256 _tokenId\n    ) external payable {\n        require(isApprovedOrOwner(msg.sender, _tokenId));\n        _transferFrom(_from, _to, _tokenId);\n    }\n\n    /// @notice Change or reaffirm the approved address for an NFT\n    /// @dev The zero address indicates there is no approved address.\n    ///  Throws unless `msg.sender` is the current NFT owner, or an authorized\n    ///  operator of the current owner.\n    /// @param _approved The new approved NFT controller\n    /// @param _tokenId The NFT to approve\n    function approve(address _approved, uint256 _tokenId) external payable {\n        // 1. require that the person approving is the owner.\n        // 2. We are approving an address to a token (tokenId).\n        // 3. Require that we can't approve sending tokens to ourselves (tokens of the owner to the current caller)\n        // 4. Update the map of the approval addresses.\n\n        address owner = ownerOf(_tokenId);\n        require(_approved != owner, \"Error: Approval to the current owner\");\n        require(\n            msg.sender == owner,\n            \"Error: Message sender must be an owner of the token.\"\n        );\n        tokenApprovals[_tokenId] = _approved;\n        emit Approval(owner, _approved, _tokenId);\n    }\n\n    // Is the address an owner or an approver of the token?\n    function isApprovedOrOwner(address _spender, uint256 _tokenId)\n        internal\n        view\n        returns (bool)\n    {\n        require(exists(_tokenId), \"Error: Token does not exist.\");\n        address owner = ownerOf(_tokenId);\n        return (_spender == owner || _spender == tokenApprovals[_tokenId]);\n    }\n}\n",
  "sourcePath": "/home/sergey/Projects/Education/nft-marketplace-starter-kit/src/contracts/ERC721.sol",
  "compiler": {
    "name": "solc",
    "version": "0.8.11+commit.d7f03943.Emscripten.clang"
  },
  "schemaVersion": "3.4.3",
  "updatedAt": "2022-01-06T03:00:01.216Z",
  "devdoc": {
    "details": "See https://eips.ethereum.org/EIPS/eip-721",
    "kind": "dev",
    "methods": {
      "approve(address,uint256)": {
        "details": "The zero address indicates there is no approved address.  Throws unless `msg.sender` is the current NFT owner, or an authorized  operator of the current owner.",
        "params": {
          "_approved": "The new approved NFT controller",
          "_tokenId": "The NFT to approve"
        }
      },
      "balanceOf(address)": {
        "details": "NFTs assigned to the zero address are considered invalid, and this  function throws for queries about the zero address.",
        "params": {
          "_owner": "An address for whom to query the balance"
        },
        "returns": {
          "_0": "The number of NFTs owned by `_owner`, possibly zero"
        }
      },
      "ownerOf(uint256)": {
        "details": "NFTs assigned to zero address are considered invalid, and queries  about them do throw.",
        "params": {
          "_tokenId": "The identifier for an NFT"
        },
        "returns": {
          "_0": "The address of the owner of the NFT"
        }
      },
      "supportsInterface(bytes4)": {
        "details": "Interface identification is specified in ERC-165. This function  uses less than 30,000 gas.",
        "params": {
          "interfaceID": "The interface identifier, as specified in ERC-165"
        },
        "returns": {
          "_0": "`true` if the contract implements `interfaceID` and  `interfaceID` is not 0xffffffff, `false` otherwise"
        }
      },
      "transferFrom(address,address,uint256)": {
        "details": "Throws unless `msg.sender` is the current owner, an authorized  operator, or the approved address for this NFT. Throws if `_from` is  not the current owner. Throws if `_to` is the zero address. Throws if  `_tokenId` is not a valid NFT.",
        "params": {
          "_from": "The current owner of the NFT",
          "_to": "The new owner",
          "_tokenId": "The NFT to transfer"
        }
      }
    },
    "title": "ERC-721 Non-Fungible Token Standard",
    "version": 1
  },
  "userdoc": {
    "kind": "user",
    "methods": {
      "approve(address,uint256)": {
        "notice": "Change or reaffirm the approved address for an NFT"
      },
      "balanceOf(address)": {
        "notice": "Count all NFTs assigned to an owner"
      },
      "ownerOf(uint256)": {
        "notice": "Find the owner of an NFT"
      },
      "supportsInterface(bytes4)": {
        "notice": "Query if a contract implements an interface"
      },
      "transferFrom(address,address,uint256)": {
        "notice": "Transfer ownership of an NFT -- THE CALLER IS RESPONSIBLE  TO CONFIRM THAT `_to` IS CAPABLE OF RECEIVING NFTS OR ELSE  THEY MAY BE PERMANENTLY LOST"
      }
    },
    "version": 1
  }
}