{
  "contractName": "ERC721Enumerable",
  "abi": [
    {
      "anonymous": false,
      "inputs": [
        {
          "indexed": true,
          "internalType": "address",
          "name": "_from",
          "type": "address"
        },
        {
          "indexed": true,
          "internalType": "address",
          "name": "_to",
          "type": "address"
        },
        {
          "indexed": true,
          "internalType": "uint256",
          "name": "_tokenId",
          "type": "uint256"
        }
      ],
      "name": "Transfer",
      "type": "event"
    },
    {
      "inputs": [
        {
          "internalType": "address",
          "name": "_owner",
          "type": "address"
        }
      ],
      "name": "balanceOf",
      "outputs": [
        {
          "internalType": "uint256",
          "name": "",
          "type": "uint256"
        }
      ],
      "stateMutability": "view",
      "type": "function"
    },
    {
      "inputs": [
        {
          "internalType": "uint256",
          "name": "_tokenId",
          "type": "uint256"
        }
      ],
      "name": "ownerOf",
      "outputs": [
        {
          "internalType": "address",
          "name": "",
          "type": "address"
        }
      ],
      "stateMutability": "view",
      "type": "function"
    },
    {
      "inputs": [],
      "name": "totalSupply",
      "outputs": [
        {
          "internalType": "uint256",
          "name": "",
          "type": "uint256"
        }
      ],
      "stateMutability": "view",
      "type": "function"
    },
    {
      "inputs": [
        {
          "internalType": "uint256",
          "name": "_index",
          "type": "uint256"
        }
      ],
      "name": "tokenByIndex",
      "outputs": [
        {
          "internalType": "uint256",
          "name": "",
          "type": "uint256"
        }
      ],
      "stateMutability": "view",
      "type": "function"
    },
    {
      "inputs": [
        {
          "internalType": "address",
          "name": "_owner",
          "type": "address"
        },
        {
          "internalType": "uint256",
          "name": "_index",
          "type": "uint256"
        }
      ],
      "name": "tokenofOwnerByIndex",
      "outputs": [
        {
          "internalType": "uint256",
          "name": "",
          "type": "uint256"
        }
      ],
      "stateMutability": "view",
      "type": "function"
    }
  ],
  "bytecode": "0x608060405234801561001057600080fd5b506103dc806100206000396000f3fe608060405234801561001057600080fd5b50600436106100575760003560e01c806318160ddd1461005c5780632ffa30c1146100735780634f6ccce7146100865780636352211e1461009957806370a08231146100c4575b600080fd5b6002545b6040519081526020015b60405180910390f35b61006061008136600461032b565b6100d7565b610060610094366004610355565b61018c565b6100ac6100a7366004610355565b61021b565b6040516001600160a01b03909116815260200161006a565b6100606100d236600461036e565b61029b565b60006100e28361029b565b821061014f5760405162461bcd60e51b815260206004820152603160248201527f4572726f723a2054686520696e646578206f66206f776e656420746f6b656e73604482015270206973206f7574206f6620626f756e647360781b60648201526084015b60405180910390fd5b6001600160a01b038316600090815260046020526040902080548390811061017957610179610390565b9060005260206000200154905092915050565b600061019760025490565b82106101f65760405162461bcd60e51b815260206004820152602860248201527f4572726f723a20476c6f62616c20737570706c7920696e646578206f7574206f6044820152676620626f756e647360c01b6064820152608401610146565b6002828154811061020957610209610390565b90600052602060002001549050919050565b6000818152602081905260408120546001600160a01b0316806102955760405162461bcd60e51b815260206004820152602c60248201527f4552433732313a20546f6b656e206f776e6572206d757374206265206120766160448201526b3634b21030b2323932b9b99760a11b6064820152608401610146565b92915050565b60006001600160a01b0382166102f35760405162461bcd60e51b815260206004820181905260248201527f4552433732313a204d75737420626520612076616c696420616464726573732e6044820152606401610146565b506001600160a01b031660009081526001602052604090205490565b80356001600160a01b038116811461032657600080fd5b919050565b6000806040838503121561033e57600080fd5b6103478361030f565b946020939093013593505050565b60006020828403121561036757600080fd5b5035919050565b60006020828403121561038057600080fd5b6103898261030f565b9392505050565b634e487b7160e01b600052603260045260246000fdfea264697066735822122093fba1f84edf16f731d16e5df6c4a61819a4acbd2eb3afb8f65609e26d5de0b564736f6c634300080a0033",
  "immutableReferences": {},
  "source": "// SPDX-License-Identifier: MIT\npragma solidity ^0.8.0;\n\nimport \"./ERC721.sol\";\n\n/// @title ERC-721 Non-Fungible Token Standard, optional enumeration extension\n/// @dev See https://eips.ethereum.org/EIPS/eip-721\n///  Note: the ERC-165 identifier for this interface is 0x780e9d63.\n/* is ERC721 */\ncontract ERC721Enumerable is ERC721 {\n    /// Array of all tokens\n    uint256[] private allTokens;\n\n    /// Mapping of tokenId to the position in allTokens array\n    mapping(uint256 => uint256) private allTokensIndex;\n\n    /// Mapping of owner to the list of all token IDs\n    mapping(address => uint256[]) private ownedTokens;\n\n    /// Mapping of a token ID to the index of the owner token list\n    mapping(uint256 => uint256) private ownedTokensIndex;\n\n    /// @notice Count NFTs tracked by this contract\n    /// @return A count of valid NFTs tracked by this contract, where each one of\n    ///  them has an assigned and queryable owner not equal to the zero address\n    function totalSupply() public view returns (uint256) {\n        return allTokens.length;\n    }\n\n    /// @notice Enumerate valid NFTs\n    /// @dev Throws if `_index` >= `totalSupply()`.\n    /// @param _index A counter less than `totalSupply()`\n    /// @return The token identifier for the `_index`th NFT,\n    ///  (sort order not specified)\n    // function tokenByIndex(uint256 _index) external view returns (uint256){\n    // }\n\n    /// @notice Enumerate NFTs assigned to an owner\n    /// @dev Throws if `_index` >= `balanceOf(_owner)` or if\n    ///  `_owner` is the zero address, representing invalid NFTs.\n    /// @param _owner An address where we are interested in NFTs owned by them\n    /// @param _index A counter less than `balanceOf(_owner)`\n    /// @return The token identifier for the `_index`th NFT assigned to `_owner`,\n    ///   (sort order not specified)\n    // function tokenOfOwnerByIndex(address _owner, uint256 _index)\n    //     external\n    //     view\n    //     returns (uint256);\n\n    /// Minting function. We override mint function from ERC721\n    function mint(address _to, uint256 _tokenId) internal override(ERC721) {\n        super.mint(_to, _tokenId);\n        // a. Add tokens to the owner.\n        // b. Add tokens to the total supply.\n        addTokenToAllTokenEnumeration(_tokenId);\n        addTokensToOwnerEnumeration(_to, _tokenId);\n    }\n\n    /// Add the token to all tokens enumetation and allTokensIndex mapping\n    function addTokenToAllTokenEnumeration(uint256 _tokenId) private {\n        allTokensIndex[_tokenId] = allTokens.length;\n        allTokens.push(_tokenId);\n    }\n\n    // Add the token to the list of tokens owned by the address\n    function addTokensToOwnerEnumeration(address _to, uint256 _tokenId)\n        private\n    {\n        // a. Add address and token ID to ownedTokens.\n        // b. Set ownedTokensIndex tokenId to adress of ownedToken position.\n        // c. We want to execute this function with minting.\n        ownedTokensIndex[_tokenId] = ownedTokens[_to].length;\n        ownedTokens[_to].push(_tokenId);\n    }\n\n    /// Return a token by index\n    function tokenByIndex(uint256 _index) public view returns (uint256) {\n        require(\n            _index < totalSupply(),\n            \"Error: Global supply index out of bounds\"\n        );\n        return allTokens[_index];\n    }\n\n    /// Return a token by the owner and index in the owned tokens array\n    function tokenofOwnerByIndex(address _owner, uint256 _index)\n        public\n        view\n        returns (uint256)\n    {\n        require(\n            _index < balanceOf(_owner),\n            \"Error: The index of owned tokens is out of bounds\"\n        );\n        return ownedTokens[_owner][_index];\n    }\n}\n",
  "sourcePath": "/home/sergey/Projects/Education/nft-marketplace-starter-kit/src/contracts/ERC721Enumerable.sol",
  "compiler": {
    "name": "solc",
    "version": "0.8.10+commit.fc410830.Emscripten.clang"
  },
  "schemaVersion": "3.4.3",
  "updatedAt": "2021-12-16T02:18:15.674Z",
  "devdoc": {
    "details": "See https://eips.ethereum.org/EIPS/eip-721  Note: the ERC-165 identifier for this interface is 0x780e9d63.",
    "kind": "dev",
    "methods": {
      "balanceOf(address)": {
        "details": "NFTs assigned to the zero address are considered invalid, and this  function throws for queries about the zero address.",
        "params": {
          "_owner": "An address for whom to query the balance"
        },
        "returns": {
          "_0": "The number of NFTs owned by `_owner`, possibly zero"
        }
      },
      "ownerOf(uint256)": {
        "details": "NFTs assigned to zero address are considered invalid, and queries  about them do throw.",
        "params": {
          "_tokenId": "The identifier for an NFT"
        },
        "returns": {
          "_0": "The address of the owner of the NFT"
        }
      },
      "totalSupply()": {
        "returns": {
          "_0": "A count of valid NFTs tracked by this contract, where each one of  them has an assigned and queryable owner not equal to the zero address"
        }
      }
    },
    "title": "ERC-721 Non-Fungible Token Standard, optional enumeration extension",
    "version": 1
  },
  "userdoc": {
    "kind": "user",
    "methods": {
      "balanceOf(address)": {
        "notice": "Count all NFTs assigned to an owner"
      },
      "ownerOf(uint256)": {
        "notice": "Find the owner of an NFT"
      },
      "tokenByIndex(uint256)": {
        "notice": "Return a token by index"
      },
      "tokenofOwnerByIndex(address,uint256)": {
        "notice": "Return a token by the owner and index in the owned tokens array"
      },
      "totalSupply()": {
        "notice": "Count NFTs tracked by this contract"
      }
    },
    "version": 1
  }
}