{
  "contractName": "ERC721Enumerable",
  "abi": [
    {
      "anonymous": false,
      "inputs": [
        {
          "indexed": true,
          "internalType": "address",
          "name": "_from",
          "type": "address"
        },
        {
          "indexed": true,
          "internalType": "address",
          "name": "_to",
          "type": "address"
        },
        {
          "indexed": true,
          "internalType": "uint256",
          "name": "_tokenId",
          "type": "uint256"
        }
      ],
      "name": "Transfer",
      "type": "event"
    },
    {
      "inputs": [
        {
          "internalType": "address",
          "name": "_owner",
          "type": "address"
        }
      ],
      "name": "balanceOf",
      "outputs": [
        {
          "internalType": "uint256",
          "name": "",
          "type": "uint256"
        }
      ],
      "stateMutability": "view",
      "type": "function"
    },
    {
      "inputs": [
        {
          "internalType": "uint256",
          "name": "_tokenId",
          "type": "uint256"
        }
      ],
      "name": "ownerOf",
      "outputs": [
        {
          "internalType": "address",
          "name": "",
          "type": "address"
        }
      ],
      "stateMutability": "view",
      "type": "function"
    },
    {
      "inputs": [],
      "name": "totalSupply",
      "outputs": [
        {
          "internalType": "uint256",
          "name": "",
          "type": "uint256"
        }
      ],
      "stateMutability": "view",
      "type": "function"
    }
  ],
  "bytecode": "0x608060405234801561001057600080fd5b50610213806100206000396000f3fe608060405234801561001057600080fd5b50600436106100415760003560e01c806318160ddd146100465780636352211e1461005d57806370a0823114610088575b600080fd5b6002545b6040519081526020015b60405180910390f35b61007061006b366004610194565b61009b565b6040516001600160a01b039091168152602001610054565b61004a6100963660046101ad565b610120565b6000818152602081905260408120546001600160a01b03168061011a5760405162461bcd60e51b815260206004820152602c60248201527f4552433732313a20546f6b656e206f776e6572206d757374206265206120766160448201526b3634b21030b2323932b9b99760a11b60648201526084015b60405180910390fd5b92915050565b60006001600160a01b0382166101785760405162461bcd60e51b815260206004820181905260248201527f4552433732313a204d75737420626520612076616c696420616464726573732e6044820152606401610111565b506001600160a01b031660009081526001602052604090205490565b6000602082840312156101a657600080fd5b5035919050565b6000602082840312156101bf57600080fd5b81356001600160a01b03811681146101d657600080fd5b939250505056fea26469706673582212201a8f29e5d967676d799f68c7b4a3073c4187a76ce393feb5cf5f559834ac867064736f6c634300080a0033",
  "immutableReferences": {},
  "source": "// SPDX-License-Identifier: MIT\npragma solidity ^0.8.0;\n\nimport \"./ERC721.sol\";\n\n/// @title ERC-721 Non-Fungible Token Standard, optional enumeration extension\n/// @dev See https://eips.ethereum.org/EIPS/eip-721\n///  Note: the ERC-165 identifier for this interface is 0x780e9d63.\n/* is ERC721 */\ncontract ERC721Enumerable is ERC721 {\n    /// Array of all tokens\n    uint256[] private allTokens;\n\n    /// Mapping of tokenId to the position in allTokens array\n    mapping(uint256 => uint256) private allTokensIndex;\n\n    /// Mapping of owner to the list of all token IDs\n    mapping(address => uint256[]) private ownedTokens;\n\n    /// Mapping of a token ID to the index of the owner token list\n    mapping(uint256 => uint256) private ownedTokensIndex;\n\n    /// @notice Count NFTs tracked by this contract\n    /// @return A count of valid NFTs tracked by this contract, where each one of\n    ///  them has an assigned and queryable owner not equal to the zero address\n    function totalSupply() external view returns (uint256) {\n        return allTokens.length;\n    }\n\n    /// @notice Enumerate valid NFTs\n    /// @dev Throws if `_index` >= `totalSupply()`.\n    /// @param _index A counter less than `totalSupply()`\n    /// @return The token identifier for the `_index`th NFT,\n    ///  (sort order not specified)\n    // function tokenByIndex(uint256 _index) external view returns (uint256);\n\n    /// @notice Enumerate NFTs assigned to an owner\n    /// @dev Throws if `_index` >= `balanceOf(_owner)` or if\n    ///  `_owner` is the zero address, representing invalid NFTs.\n    /// @param _owner An address where we are interested in NFTs owned by them\n    /// @param _index A counter less than `balanceOf(_owner)`\n    /// @return The token identifier for the `_index`th NFT assigned to `_owner`,\n    ///   (sort order not specified)\n    // function tokenOfOwnerByIndex(address _owner, uint256 _index)\n    //     external\n    //     view\n    //     returns (uint256);\n\n    /// Minting function. We override mint function from ERC721\n    function mint(address _to, uint256 _tokenId) internal override(ERC721) {\n        super.mint(_to, _tokenId);\n        // a. Add tokens to the owner.\n        // b. Add tokens to the total supply.\n        addTokenToTotalSupply(_tokenId);\n    }\n\n    /// Add tokens to the total supply\n    function addTokenToTotalSupply(uint256 _tokenId) private {\n        allTokens.push(_tokenId);\n    }\n}\n",
  "sourcePath": "/home/sergey/Projects/Education/nft-marketplace-starter-kit/src/contracts/ERC721Enumerable.sol",
  "compiler": {
    "name": "solc",
    "version": "0.8.10+commit.fc410830.Emscripten.clang"
  },
  "schemaVersion": "3.4.3",
  "updatedAt": "2021-12-15T08:25:28.259Z",
  "devdoc": {
    "details": "See https://eips.ethereum.org/EIPS/eip-721  Note: the ERC-165 identifier for this interface is 0x780e9d63.",
    "kind": "dev",
    "methods": {
      "balanceOf(address)": {
        "details": "NFTs assigned to the zero address are considered invalid, and this  function throws for queries about the zero address.",
        "params": {
          "_owner": "An address for whom to query the balance"
        },
        "returns": {
          "_0": "The number of NFTs owned by `_owner`, possibly zero"
        }
      },
      "ownerOf(uint256)": {
        "details": "NFTs assigned to zero address are considered invalid, and queries  about them do throw.",
        "params": {
          "_tokenId": "The identifier for an NFT"
        },
        "returns": {
          "_0": "The address of the owner of the NFT"
        }
      },
      "totalSupply()": {
        "returns": {
          "_0": "A count of valid NFTs tracked by this contract, where each one of  them has an assigned and queryable owner not equal to the zero address"
        }
      }
    },
    "title": "ERC-721 Non-Fungible Token Standard, optional enumeration extension",
    "version": 1
  },
  "userdoc": {
    "kind": "user",
    "methods": {
      "balanceOf(address)": {
        "notice": "Count all NFTs assigned to an owner"
      },
      "ownerOf(uint256)": {
        "notice": "Find the owner of an NFT"
      },
      "totalSupply()": {
        "notice": "Count NFTs tracked by this contract"
      }
    },
    "version": 1
  }
}