{
  "contractName": "ERC721Enumerable",
  "abi": [
    {
      "anonymous": false,
      "inputs": [
        {
          "indexed": true,
          "internalType": "address",
          "name": "_owner",
          "type": "address"
        },
        {
          "indexed": true,
          "internalType": "address",
          "name": "_approved",
          "type": "address"
        },
        {
          "indexed": true,
          "internalType": "uint256",
          "name": "_tokenId",
          "type": "uint256"
        }
      ],
      "name": "Approval",
      "type": "event"
    },
    {
      "anonymous": false,
      "inputs": [
        {
          "indexed": true,
          "internalType": "address",
          "name": "_from",
          "type": "address"
        },
        {
          "indexed": true,
          "internalType": "address",
          "name": "_to",
          "type": "address"
        },
        {
          "indexed": true,
          "internalType": "uint256",
          "name": "_tokenId",
          "type": "uint256"
        }
      ],
      "name": "Transfer",
      "type": "event"
    },
    {
      "inputs": [
        {
          "internalType": "address",
          "name": "_approved",
          "type": "address"
        },
        {
          "internalType": "uint256",
          "name": "_tokenId",
          "type": "uint256"
        }
      ],
      "name": "approve",
      "outputs": [],
      "stateMutability": "payable",
      "type": "function"
    },
    {
      "inputs": [
        {
          "internalType": "address",
          "name": "_owner",
          "type": "address"
        }
      ],
      "name": "balanceOf",
      "outputs": [
        {
          "internalType": "uint256",
          "name": "",
          "type": "uint256"
        }
      ],
      "stateMutability": "view",
      "type": "function"
    },
    {
      "inputs": [
        {
          "internalType": "uint256",
          "name": "_tokenId",
          "type": "uint256"
        }
      ],
      "name": "ownerOf",
      "outputs": [
        {
          "internalType": "address",
          "name": "",
          "type": "address"
        }
      ],
      "stateMutability": "view",
      "type": "function"
    },
    {
      "inputs": [
        {
          "internalType": "address",
          "name": "_from",
          "type": "address"
        },
        {
          "internalType": "address",
          "name": "_to",
          "type": "address"
        },
        {
          "internalType": "uint256",
          "name": "_tokenId",
          "type": "uint256"
        }
      ],
      "name": "transferFrom",
      "outputs": [],
      "stateMutability": "nonpayable",
      "type": "function"
    },
    {
      "inputs": [],
      "name": "totalSupply",
      "outputs": [
        {
          "internalType": "uint256",
          "name": "",
          "type": "uint256"
        }
      ],
      "stateMutability": "view",
      "type": "function"
    },
    {
      "inputs": [
        {
          "internalType": "uint256",
          "name": "_index",
          "type": "uint256"
        }
      ],
      "name": "tokenByIndex",
      "outputs": [
        {
          "internalType": "uint256",
          "name": "",
          "type": "uint256"
        }
      ],
      "stateMutability": "view",
      "type": "function"
    },
    {
      "inputs": [
        {
          "internalType": "address",
          "name": "_owner",
          "type": "address"
        },
        {
          "internalType": "uint256",
          "name": "_index",
          "type": "uint256"
        }
      ],
      "name": "tokenOfOwnerByIndex",
      "outputs": [
        {
          "internalType": "uint256",
          "name": "",
          "type": "uint256"
        }
      ],
      "stateMutability": "view",
      "type": "function"
    }
  ],
  "bytecode": "0x608060405234801561001057600080fd5b506108ae806100206000396000f3fe6080604052600436106100705760003560e01c80632f745c591161004e5780632f745c59146100ce5780634f6ccce7146100ee5780636352211e1461010e57806370a082311461014657600080fd5b8063095ea7b31461007557806318160ddd1461008a57806323b872dd146100ae575b600080fd5b610088610083366004610779565b610166565b005b34801561009657600080fd5b506003545b6040519081526020015b60405180910390f35b3480156100ba57600080fd5b506100886100c93660046107a3565b6102b7565b3480156100da57600080fd5b5061009b6100e9366004610779565b6102da565b3480156100fa57600080fd5b5061009b6101093660046107df565b61038a565b34801561011a57600080fd5b5061012e6101293660046107df565b610419565b6040516001600160a01b0390911681526020016100a5565b34801561015257600080fd5b5061009b6101613660046107f8565b610499565b600061017182610419565b9050806001600160a01b0316836001600160a01b031614156101e65760405162461bcd60e51b8152602060048201526024808201527f4572726f723a20417070726f76616c20746f207468652063757272656e74206f6044820152633bb732b960e11b60648201526084015b60405180910390fd5b336001600160a01b0382161461025b5760405162461bcd60e51b815260206004820152603460248201527f4572726f723a204d6573736167652073656e646572206d75737420626520616e6044820152731037bbb732b91037b3103a3432903a37b5b2b71760611b60648201526084016101dd565b60008281526002602052604080822080546001600160a01b0319166001600160a01b0387811691821790925591518593918516917f8c5be1e5ebec7d5bd14f71427d1e84f3dd0314c0f7b2291e5b200ac8c7c3b92591a4505050565b6102c1338261050d565b6102ca57600080fd5b6102d58383836105bf565b505050565b60006102e583610499565b821061034d5760405162461bcd60e51b815260206004820152603160248201527f4572726f723a2054686520696e646578206f66206f776e656420746f6b656e73604482015270206973206f7574206f6620626f756e647360781b60648201526084016101dd565b6001600160a01b03831660009081526005602052604090208054839081106103775761037761081a565b9060005260206000200154905092915050565b600061039560035490565b82106103f45760405162461bcd60e51b815260206004820152602860248201527f4572726f723a20476c6f62616c20737570706c7920696e646578206f7574206f6044820152676620626f756e647360c01b60648201526084016101dd565b600382815481106104075761040761081a565b90600052602060002001549050919050565b6000818152602081905260408120546001600160a01b0316806104935760405162461bcd60e51b815260206004820152602c60248201527f4552433732313a20546f6b656e206f776e6572206d757374206265206120766160448201526b3634b21030b2323932b9b99760a11b60648201526084016101dd565b92915050565b60006001600160a01b0382166104f15760405162461bcd60e51b815260206004820181905260248201527f4552433732313a204d75737420626520612076616c696420616464726573732e60448201526064016101dd565b506001600160a01b031660009081526001602052604090205490565b6000818152602081905260408120546001600160a01b03166105715760405162461bcd60e51b815260206004820152601c60248201527f4572726f723a20546f6b656e20646f6573206e6f742065786973742e0000000060448201526064016101dd565b600061057c83610419565b9050806001600160a01b0316846001600160a01b031614806105b757506000838152600260205260409020546001600160a01b038581169116145b949350505050565b6001600160a01b0382166106295760405162461bcd60e51b815260206004820152602b60248201527f4572726f72202d20455243373231205472616e7366657220746f20746865207a60448201526a65726f206164647265737360a81b60648201526084016101dd565b826001600160a01b031661063c82610419565b6001600160a01b0316146106af5760405162461bcd60e51b815260206004820152603460248201527f547279696e6720746f207472616e73666572206120746f6b656e20746865206160448201527364647265737320646f6573206e6f74206f776e2160601b60648201526084016101dd565b6001600160a01b03831660009081526001602052604081208054916106d383610846565b90915550506001600160a01b03821660009081526001602052604081208054916106fc8361085d565b909155505060008181526020819052604080822080546001600160a01b0319166001600160a01b0386811691821790925591518493918716917fddf252ad1be2c89b69c2b068fc378daa952ba7f163c4a11628f55a4df523b3ef91a4505050565b80356001600160a01b038116811461077457600080fd5b919050565b6000806040838503121561078c57600080fd5b6107958361075d565b946020939093013593505050565b6000806000606084860312156107b857600080fd5b6107c18461075d565b92506107cf6020850161075d565b9150604084013590509250925092565b6000602082840312156107f157600080fd5b5035919050565b60006020828403121561080a57600080fd5b6108138261075d565b9392505050565b634e487b7160e01b600052603260045260246000fd5b634e487b7160e01b600052601160045260246000fd5b60008161085557610855610830565b506000190190565b600060001982141561087157610871610830565b506001019056fea264697066735822122005a1840054416f0ed6877deaf982b4c610b3029fe28932c211df7ee6ff8f42db64736f6c634300080a0033",
  "immutableReferences": {},
  "source": "// SPDX-License-Identifier: MIT\npragma solidity ^0.8.0;\n\nimport \"./ERC721.sol\";\n\n/// @title ERC-721 Non-Fungible Token Standard, optional enumeration extension\n/// @dev See https://eips.ethereum.org/EIPS/eip-721\n///  Note: the ERC-165 identifier for this interface is 0x780e9d63.\n/* is ERC721 */\ncontract ERC721Enumerable is ERC721 {\n    /// Array of all tokens\n    uint256[] private allTokens;\n\n    /// Mapping of tokenId to the position in allTokens array\n    mapping(uint256 => uint256) private allTokensIndex;\n\n    /// Mapping of owner to the list of all token IDs\n    mapping(address => uint256[]) private ownedTokens;\n\n    /// Mapping of a token ID to the index of the owner token list\n    mapping(uint256 => uint256) private ownedTokensIndex;\n\n    /// @notice Count NFTs tracked by this contract\n    /// @return A count of valid NFTs tracked by this contract, where each one of\n    ///  them has an assigned and queryable owner not equal to the zero address\n    function totalSupply() public view returns (uint256) {\n        return allTokens.length;\n    }\n\n    /// @notice Enumerate valid NFTs\n    /// @dev Throws if `_index` >= `totalSupply()`.\n    /// @param _index A counter less than `totalSupply()`\n    /// @return The token identifier for the `_index`th NFT,\n    ///  (sort order not specified)\n    function tokenByIndex(uint256 _index) external view returns (uint256) {\n        require(\n            _index < totalSupply(),\n            \"Error: Global supply index out of bounds\"\n        );\n        return allTokens[_index];\n    }\n\n    /// @notice Enumerate NFTs assigned to an owner\n    /// @dev Throws if `_index` >= `balanceOf(_owner)` or if\n    ///  `_owner` is the zero address, representing invalid NFTs.\n    /// @param _owner An address where we are interested in NFTs owned by them\n    /// @param _index A counter less than `balanceOf(_owner)`\n    /// @return The token identifier for the `_index`th NFT assigned to `_owner`,\n    ///   (sort order not specified)\n    function tokenOfOwnerByIndex(address _owner, uint256 _index)\n        external\n        view\n        returns (uint256)\n    {\n        require(\n            _index < balanceOf(_owner),\n            \"Error: The index of owned tokens is out of bounds\"\n        );\n        return ownedTokens[_owner][_index];\n    }\n\n    /// Minting function. We override mint function from ERC721\n    function mint(address _to, uint256 _tokenId) internal override(ERC721) {\n        super.mint(_to, _tokenId);\n        // a. Add tokens to the owner.\n        // b. Add tokens to the total supply.\n        addTokenToAllTokenEnumeration(_tokenId);\n        addTokensToOwnerEnumeration(_to, _tokenId);\n    }\n\n    /// Add the token to all tokens enumetation and allTokensIndex mapping\n    function addTokenToAllTokenEnumeration(uint256 _tokenId) private {\n        allTokensIndex[_tokenId] = allTokens.length;\n        allTokens.push(_tokenId);\n    }\n\n    // Add the token to the list of tokens owned by the address\n    function addTokensToOwnerEnumeration(address _to, uint256 _tokenId)\n        private\n    {\n        // a. Add address and token ID to ownedTokens.\n        // b. Set ownedTokensIndex tokenId to adress of ownedToken position.\n        // c. We want to execute this function with minting.\n        ownedTokensIndex[_tokenId] = ownedTokens[_to].length;\n        ownedTokens[_to].push(_tokenId);\n    }\n}\n",
  "sourcePath": "/home/sergey/Projects/Education/nft-marketplace-starter-kit/src/contracts/ERC721Enumerable.sol",
  "compiler": {
    "name": "solc",
    "version": "0.8.10+commit.fc410830.Emscripten.clang"
  },
  "schemaVersion": "3.4.3",
  "updatedAt": "2021-12-16T05:41:54.488Z",
  "devdoc": {
    "details": "See https://eips.ethereum.org/EIPS/eip-721  Note: the ERC-165 identifier for this interface is 0x780e9d63.",
    "kind": "dev",
    "methods": {
      "approve(address,uint256)": {
        "details": "The zero address indicates there is no approved address.  Throws unless `msg.sender` is the current NFT owner, or an authorized  operator of the current owner.",
        "params": {
          "_approved": "The new approved NFT controller",
          "_tokenId": "The NFT to approve"
        }
      },
      "balanceOf(address)": {
        "details": "NFTs assigned to the zero address are considered invalid, and this  function throws for queries about the zero address.",
        "params": {
          "_owner": "An address for whom to query the balance"
        },
        "returns": {
          "_0": "The number of NFTs owned by `_owner`, possibly zero"
        }
      },
      "ownerOf(uint256)": {
        "details": "NFTs assigned to zero address are considered invalid, and queries  about them do throw.",
        "params": {
          "_tokenId": "The identifier for an NFT"
        },
        "returns": {
          "_0": "The address of the owner of the NFT"
        }
      },
      "tokenByIndex(uint256)": {
        "details": "Throws if `_index` >= `totalSupply()`.",
        "params": {
          "_index": "A counter less than `totalSupply()`"
        },
        "returns": {
          "_0": "The token identifier for the `_index`th NFT,  (sort order not specified)"
        }
      },
      "tokenOfOwnerByIndex(address,uint256)": {
        "details": "Throws if `_index` >= `balanceOf(_owner)` or if  `_owner` is the zero address, representing invalid NFTs.",
        "params": {
          "_index": "A counter less than `balanceOf(_owner)`",
          "_owner": "An address where we are interested in NFTs owned by them"
        },
        "returns": {
          "_0": "The token identifier for the `_index`th NFT assigned to `_owner`,   (sort order not specified)"
        }
      },
      "totalSupply()": {
        "returns": {
          "_0": "A count of valid NFTs tracked by this contract, where each one of  them has an assigned and queryable owner not equal to the zero address"
        }
      },
      "transferFrom(address,address,uint256)": {
        "details": "Throws unless `msg.sender` is the current owner, an authorized  operator, or the approved address for this NFT. Throws if `_from` is  not the current owner. Throws if `_to` is the zero address. Throws if  `_tokenId` is not a valid NFT.",
        "params": {
          "_from": "The current owner of the NFT",
          "_to": "The new owner",
          "_tokenId": "The NFT to transfer"
        }
      }
    },
    "title": "ERC-721 Non-Fungible Token Standard, optional enumeration extension",
    "version": 1
  },
  "userdoc": {
    "kind": "user",
    "methods": {
      "approve(address,uint256)": {
        "notice": "Change or reaffirm the approved address for an NFT"
      },
      "balanceOf(address)": {
        "notice": "Count all NFTs assigned to an owner"
      },
      "ownerOf(uint256)": {
        "notice": "Find the owner of an NFT"
      },
      "tokenByIndex(uint256)": {
        "notice": "Enumerate valid NFTs"
      },
      "tokenOfOwnerByIndex(address,uint256)": {
        "notice": "Enumerate NFTs assigned to an owner"
      },
      "totalSupply()": {
        "notice": "Count NFTs tracked by this contract"
      },
      "transferFrom(address,address,uint256)": {
        "notice": "Transfer ownership of an NFT -- THE CALLER IS RESPONSIBLE  TO CONFIRM THAT `_to` IS CAPABLE OF RECEIVING NFTS OR ELSE  THEY MAY BE PERMANENTLY LOST"
      }
    },
    "version": 1
  }
}