{
  "contractName": "ERC721Metadata",
  "abi": [
    {
      "inputs": [
        {
          "internalType": "string",
          "name": "named",
          "type": "string"
        },
        {
          "internalType": "string",
          "name": "symboled",
          "type": "string"
        }
      ],
      "stateMutability": "nonpayable",
      "type": "constructor"
    },
    {
      "inputs": [
        {
          "internalType": "bytes4",
          "name": "interfaceID",
          "type": "bytes4"
        }
      ],
      "name": "supportsInterface",
      "outputs": [
        {
          "internalType": "bool",
          "name": "",
          "type": "bool"
        }
      ],
      "stateMutability": "view",
      "type": "function"
    },
    {
      "inputs": [],
      "name": "name",
      "outputs": [
        {
          "internalType": "string",
          "name": "",
          "type": "string"
        }
      ],
      "stateMutability": "view",
      "type": "function"
    },
    {
      "inputs": [],
      "name": "symbol",
      "outputs": [
        {
          "internalType": "string",
          "name": "",
          "type": "string"
        }
      ],
      "stateMutability": "view",
      "type": "function"
    }
  ],
  "bytecode": "0x608060405234801561001057600080fd5b5060405161057838038061057883398101604081905261002f9161028e565b6100587f01ffc9a7a5cef8baa21ed3c5c0d7e23accb804b619e9333b597f47a0d84076e26100b0565b815161006b906001906020850190610133565b50805161007f906002906020840190610133565b506100a97f6c5b7360b116f8fd1d2a1ccb905de5c6a9e91e31b88b8db3cd997e184f357e9f6100b0565b505061032c565b6001600160e01b0319818116141561010e5760405162461bcd60e51b815260206004820152601a60248201527f4552433136353a20496e76616c696420696e746572666163652e000000000000604482015260640160405180910390fd5b6001600160e01b0319166000908152602081905260409020805460ff19166001179055565b82805461013f906102f1565b90600052602060002090601f01602090048101928261016157600085556101a7565b82601f1061017a57805160ff19168380011785556101a7565b828001600101855582156101a7579182015b828111156101a757825182559160200191906001019061018c565b506101b39291506101b7565b5090565b5b808211156101b357600081556001016101b8565b634e487b7160e01b600052604160045260246000fd5b600082601f8301126101f357600080fd5b81516001600160401b038082111561020d5761020d6101cc565b604051601f8301601f19908116603f01168101908282118183101715610235576102356101cc565b8160405283815260209250868385880101111561025157600080fd5b600091505b838210156102735785820183015181830184015290820190610256565b838211156102845760008385830101525b9695505050505050565b600080604083850312156102a157600080fd5b82516001600160401b03808211156102b857600080fd5b6102c4868387016101e2565b935060208501519150808211156102da57600080fd5b506102e7858286016101e2565b9150509250929050565b600181811c9082168061030557607f821691505b6020821081141561032657634e487b7160e01b600052602260045260246000fd5b50919050565b61023d8061033b6000396000f3fe608060405234801561001057600080fd5b50600436106100415760003560e01c806301ffc9a71461004657806306fdde031461008857806395d89b411461009d575b600080fd5b610073610054366004610146565b6001600160e01b03191660009081526020819052604090205460ff1690565b60405190151581526020015b60405180910390f35b6100906100a5565b60405161007f9190610177565b610090610137565b6060600180546100b4906101cc565b80601f01602080910402602001604051908101604052809291908181526020018280546100e0906101cc565b801561012d5780601f106101025761010080835404028352916020019161012d565b820191906000526020600020905b81548152906001019060200180831161011057829003601f168201915b5050505050905090565b6060600280546100b4906101cc565b60006020828403121561015857600080fd5b81356001600160e01b03198116811461017057600080fd5b9392505050565b600060208083528351808285015260005b818110156101a457858101830151858201604001528201610188565b818111156101b6576000604083870101525b50601f01601f1916929092016040019392505050565b600181811c908216806101e057607f821691505b6020821081141561020157634e487b7160e01b600052602260045260246000fd5b5091905056fea26469706673582212206cad71e96937d5f13f9dc54f353382a44978a26282f31fd4c3c869b3ead8c36a64736f6c634300080a0033",
  "immutableReferences": {},
  "source": "// SPDX-License-Identifier: MIT\npragma solidity ^0.8.0;\n\nimport \"./interfaces/IERC721Metadata.sol\";\nimport \"./ERC165.sol\";\n\n/// Metadata for ERC-721  Non-Fungible Token Standard\n/// @dev See https://eips.ethereum.org/EIPS/eip-721\ncontract ERC721Metadata is IERC721Metadata, ERC165 {\n    string private _name;\n    string private _symbol;\n\n    constructor(string memory named, string memory symboled) {\n        _name = named;\n        _symbol = symboled;\n        registerInterface(\n            bytes4(keccak256(\"name(bytes4)\") ^ keccak256(\"symbol(bytes4)\"))\n        );\n    }\n\n    /** name getter */\n    function name() external view override returns (string memory) {\n        return _name;\n    }\n\n    /** sumbol getter */\n    function symbol() external view override returns (string memory) {\n        return _symbol;\n    }\n}\n",
  "sourcePath": "/home/sergey/Projects/Education/nft-marketplace-starter-kit/src/contracts/ERC721Metadata.sol",
  "compiler": {
    "name": "solc",
    "version": "0.8.10+commit.fc410830.Emscripten.clang"
  },
  "schemaVersion": "3.4.3",
  "updatedAt": "2021-12-19T01:33:07.066Z",
  "devdoc": {
    "details": "See https://eips.ethereum.org/EIPS/eip-721",
    "kind": "dev",
    "methods": {
      "supportsInterface(bytes4)": {
        "details": "Interface identification is specified in ERC-165. This function  uses less than 30,000 gas.",
        "params": {
          "interfaceID": "The interface identifier, as specified in ERC-165"
        },
        "returns": {
          "_0": "`true` if the contract implements `interfaceID` and  `interfaceID` is not 0xffffffff, `false` otherwise"
        }
      }
    },
    "version": 1
  },
  "userdoc": {
    "kind": "user",
    "methods": {
      "name()": {
        "notice": "name getter "
      },
      "supportsInterface(bytes4)": {
        "notice": "Query if a contract implements an interface"
      },
      "symbol()": {
        "notice": "sumbol getter "
      }
    },
    "notice": "Metadata for ERC-721  Non-Fungible Token Standard",
    "version": 1
  }
}