{
  "contractName": "KryptoBird",
  "abi": [
    {
      "inputs": [],
      "stateMutability": "nonpayable",
      "type": "constructor"
    },
    {
      "anonymous": false,
      "inputs": [
        {
          "indexed": true,
          "internalType": "address",
          "name": "_from",
          "type": "address"
        },
        {
          "indexed": true,
          "internalType": "address",
          "name": "_to",
          "type": "address"
        },
        {
          "indexed": true,
          "internalType": "uint256",
          "name": "_tokenId",
          "type": "uint256"
        }
      ],
      "name": "Transfer",
      "type": "event"
    },
    {
      "inputs": [
        {
          "internalType": "address",
          "name": "_owner",
          "type": "address"
        }
      ],
      "name": "balanceOf",
      "outputs": [
        {
          "internalType": "uint256",
          "name": "",
          "type": "uint256"
        }
      ],
      "stateMutability": "view",
      "type": "function",
      "constant": true
    },
    {
      "inputs": [
        {
          "internalType": "uint256",
          "name": "",
          "type": "uint256"
        }
      ],
      "name": "kryptoBirdz",
      "outputs": [
        {
          "internalType": "string",
          "name": "",
          "type": "string"
        }
      ],
      "stateMutability": "view",
      "type": "function",
      "constant": true
    },
    {
      "inputs": [],
      "name": "name",
      "outputs": [
        {
          "internalType": "string",
          "name": "",
          "type": "string"
        }
      ],
      "stateMutability": "view",
      "type": "function",
      "constant": true
    },
    {
      "inputs": [
        {
          "internalType": "uint256",
          "name": "_tokenId",
          "type": "uint256"
        }
      ],
      "name": "ownerOf",
      "outputs": [
        {
          "internalType": "address",
          "name": "",
          "type": "address"
        }
      ],
      "stateMutability": "view",
      "type": "function",
      "constant": true
    },
    {
      "inputs": [],
      "name": "symbol",
      "outputs": [
        {
          "internalType": "string",
          "name": "",
          "type": "string"
        }
      ],
      "stateMutability": "view",
      "type": "function",
      "constant": true
    },
    {
      "inputs": [
        {
          "internalType": "string",
          "name": "_kryptoBird",
          "type": "string"
        }
      ],
      "name": "mint",
      "outputs": [],
      "stateMutability": "nonpayable",
      "type": "function"
    }
  ],
  "bytecode": "0x608060405234801561001057600080fd5b50604080518082018252600a81526912dc9e5c1d1bd09a5c9960b21b60208083019182528351808501909452600684526525a124a9222d60d11b9084015281519192918391839161006391600291610081565b508051610077906003906020840190610081565b5050505050610155565b82805461008d9061011a565b90600052602060002090601f0160209004810192826100af57600085556100f5565b82601f106100c857805160ff19168380011785556100f5565b828001600101855582156100f5579182015b828111156100f55782518255916020019190600101906100da565b50610101929150610105565b5090565b5b808211156101015760008155600101610106565b600181811c9082168061012e57607f821691505b6020821081141561014f57634e487b7160e01b600052602260045260246000fd5b50919050565b610894806101646000396000f3fe608060405234801561001057600080fd5b50600436106100625760003560e01c806306fdde03146100675780636352211e1461008557806370a08231146100b057806393ab6e56146100d157806395d89b41146100e4578063d85d3d27146100ec575b600080fd5b61006f610101565b60405161007c919061067f565b60405180910390f35b6100986100933660046106b2565b610193565b6040516001600160a01b03909116815260200161007c565b6100c36100be3660046106cb565b610218565b60405190815260200161007c565b61006f6100df3660046106b2565b61028c565b61006f610338565b6100ff6100fa366004610711565b610347565b005b606060028054610110906107c2565b80601f016020809104026020016040519081016040528092919081815260200182805461013c906107c2565b80156101895780601f1061015e57610100808354040283529160200191610189565b820191906000526020600020905b81548152906001019060200180831161016c57829003601f168201915b5050505050905090565b6000818152602081905260408120546001600160a01b0316806102125760405162461bcd60e51b815260206004820152602c60248201527f4552433732313a20546f6b656e206f776e6572206d757374206265206120766160448201526b3634b21030b2323932b9b99760a11b60648201526084015b60405180910390fd5b92915050565b60006001600160a01b0382166102705760405162461bcd60e51b815260206004820181905260248201527f4552433732313a204d75737420626520612076616c696420616464726573732e6044820152606401610209565b506001600160a01b031660009081526001602052604090205490565b6004818154811061029c57600080fd5b9060005260206000200160009150905080546102b7906107c2565b80601f01602080910402602001604051908101604052809291908181526020018280546102e3906107c2565b80156103305780601f1061030557610100808354040283529160200191610330565b820191906000526020600020905b81548152906001019060200180831161031357829003601f168201915b505050505081565b606060038054610110906107c2565b60058160405161035791906107fd565b9081526040519081900360200190205460ff16156103b75760405162461bcd60e51b815260206004820181905260248201527f4572726f723a204b727970746f4269726420616c7265616479206578697374736044820152606401610209565b6004805460018101825560009190915281516103fa917f8a35acfbc15ff81a39ae7d344fd709f28e8600b4aa8c65c6b64bfe7fe36bd19b019060208401906105b6565b5060045460009061040d9060019061082f565b9050610419338261044f565b600160058360405161042b91906107fd565b908152604051908190036020019020805491151560ff199092169190911790555050565b6001600160a01b0382166104b75760405162461bcd60e51b815260206004820152602960248201527f4552433732313a204d696e74696e672061646472657373206d757374206e6f74604482015268103132903d32b9379760b91b6064820152608401610209565b6000818152602081905260409020546001600160a01b03161561052f5760405162461bcd60e51b815260206004820152602a60248201527f4552433732313a2054686520746f6b656e2068617320616c726561647920626560448201526932b71036b4b73a32b21760b11b6064820152608401610209565b60008181526020818152604080832080546001600160a01b0319166001600160a01b03871690811790915583526001918290528220805491929091610575908490610846565b909155505060405181906001600160a01b038416906000907fddf252ad1be2c89b69c2b068fc378daa952ba7f163c4a11628f55a4df523b3ef908290a45050565b8280546105c2906107c2565b90600052602060002090601f0160209004810192826105e4576000855561062a565b82601f106105fd57805160ff191683800117855561062a565b8280016001018555821561062a579182015b8281111561062a57825182559160200191906001019061060f565b5061063692915061063a565b5090565b5b80821115610636576000815560010161063b565b60005b8381101561066a578181015183820152602001610652565b83811115610679576000848401525b50505050565b602081526000825180602084015261069e81604085016020870161064f565b601f01601f19169190910160400192915050565b6000602082840312156106c457600080fd5b5035919050565b6000602082840312156106dd57600080fd5b81356001600160a01b03811681146106f457600080fd5b9392505050565b634e487b7160e01b600052604160045260246000fd5b60006020828403121561072357600080fd5b813567ffffffffffffffff8082111561073b57600080fd5b818401915084601f83011261074f57600080fd5b813581811115610761576107616106fb565b604051601f8201601f19908116603f01168101908382118183101715610789576107896106fb565b816040528281528760208487010111156107a257600080fd5b826020860160208301376000928101602001929092525095945050505050565b600181811c908216806107d657607f821691505b602082108114156107f757634e487b7160e01b600052602260045260246000fd5b50919050565b6000825161080f81846020870161064f565b9190910192915050565b634e487b7160e01b600052601160045260246000fd5b60008282101561084157610841610819565b500390565b6000821982111561085957610859610819565b50019056fea2646970667358221220ecc828af0fecad125bb6173e779ee7bd7d1eb9258f074c2055fd703380ddb95064736f6c634300080a0033",
  "immutableReferences": {},
  "source": "// SPDX-License-Identifier: MIT\npragma solidity ^0.8.0;\n\nimport \"./ERC721Connector.sol\";\n\ncontract KryptoBird is ERC721Connector {\n    // Array to store our NFTs\n    string[] public kryptoBirdz;\n\n    mapping(string => bool) isKryptoBirdExist;\n\n    function mint(string memory _kryptoBird) public {\n        require(\n            !isKryptoBirdExist[_kryptoBird],\n            \"Error: KryptoBird already exists\"\n        );\n\n        kryptoBirdz.push(_kryptoBird);\n        uint256 id = kryptoBirdz.length - 1;\n        super.mint(msg.sender, id);\n\n        // Mark this KryptoBird as already minted\n        isKryptoBirdExist[_kryptoBird] = true;\n    }\n\n    constructor() ERC721Connector(\"KryptoBird\", \"KBIRDZ\") {}\n}\n",
  "sourcePath": "/home/sergey/Projects/Education/nft-marketplace-starter-kit/src/contracts/KryptoBirdz.sol",
  "compiler": {
    "name": "solc",
    "version": "0.8.10+commit.fc410830.Emscripten.clang"
  },
  "schemaVersion": "3.4.3",
  "updatedAt": "2021-12-15T05:35:28.243Z",
  "networkType": "ethereum",
  "devdoc": {
    "kind": "dev",
    "methods": {
      "balanceOf(address)": {
        "details": "NFTs assigned to the zero address are considered invalid, and this  function throws for queries about the zero address.",
        "params": {
          "_owner": "An address for whom to query the balance"
        },
        "returns": {
          "_0": "The number of NFTs owned by `_owner`, possibly zero"
        }
      },
      "ownerOf(uint256)": {
        "details": "NFTs assigned to zero address are considered invalid, and queries  about them do throw.",
        "params": {
          "_tokenId": "The identifier for an NFT"
        },
        "returns": {
          "_0": "The address of the owner of the NFT"
        }
      }
    },
    "version": 1
  },
  "userdoc": {
    "kind": "user",
    "methods": {
      "balanceOf(address)": {
        "notice": "Count all NFTs assigned to an owner"
      },
      "name()": {
        "notice": "name getter "
      },
      "ownerOf(uint256)": {
        "notice": "Find the owner of an NFT"
      },
      "symbol()": {
        "notice": "sumbol getter "
      }
    },
    "version": 1
  }
}