{
  "contractName": "KryptoBird",
  "abi": [
    {
      "inputs": [],
      "stateMutability": "nonpayable",
      "type": "constructor"
    },
    {
      "anonymous": false,
      "inputs": [
        {
          "indexed": true,
          "internalType": "address",
          "name": "_from",
          "type": "address"
        },
        {
          "indexed": true,
          "internalType": "address",
          "name": "_to",
          "type": "address"
        },
        {
          "indexed": true,
          "internalType": "uint256",
          "name": "_tokenId",
          "type": "uint256"
        }
      ],
      "name": "Transfer",
      "type": "event"
    },
    {
      "inputs": [
        {
          "internalType": "address",
          "name": "_owner",
          "type": "address"
        }
      ],
      "name": "balanceOf",
      "outputs": [
        {
          "internalType": "uint256",
          "name": "",
          "type": "uint256"
        }
      ],
      "stateMutability": "view",
      "type": "function"
    },
    {
      "inputs": [
        {
          "internalType": "uint256",
          "name": "",
          "type": "uint256"
        }
      ],
      "name": "kryptoBirdz",
      "outputs": [
        {
          "internalType": "string",
          "name": "",
          "type": "string"
        }
      ],
      "stateMutability": "view",
      "type": "function"
    },
    {
      "inputs": [],
      "name": "name",
      "outputs": [
        {
          "internalType": "string",
          "name": "",
          "type": "string"
        }
      ],
      "stateMutability": "view",
      "type": "function"
    },
    {
      "inputs": [
        {
          "internalType": "uint256",
          "name": "_tokenId",
          "type": "uint256"
        }
      ],
      "name": "ownerOf",
      "outputs": [
        {
          "internalType": "address",
          "name": "",
          "type": "address"
        }
      ],
      "stateMutability": "view",
      "type": "function"
    },
    {
      "inputs": [],
      "name": "symbol",
      "outputs": [
        {
          "internalType": "string",
          "name": "",
          "type": "string"
        }
      ],
      "stateMutability": "view",
      "type": "function"
    },
    {
      "inputs": [],
      "name": "totalSupply",
      "outputs": [
        {
          "internalType": "uint256",
          "name": "",
          "type": "uint256"
        }
      ],
      "stateMutability": "view",
      "type": "function"
    },
    {
      "inputs": [
        {
          "internalType": "string",
          "name": "_kryptoBird",
          "type": "string"
        }
      ],
      "name": "mint",
      "outputs": [],
      "stateMutability": "nonpayable",
      "type": "function"
    }
  ],
  "bytecode": "0x608060405234801561001057600080fd5b506040518060400160405280600a81526020016912dc9e5c1d1bd09a5c9960b21b8152506040518060400160405280600681526020016525a124a9222d60d11b8152508181816006908051906020019061006b929190610089565b50805161007f906007906020840190610089565b505050505061015d565b82805461009590610122565b90600052602060002090601f0160209004810192826100b757600085556100fd565b82601f106100d057805160ff19168380011785556100fd565b828001600101855582156100fd579182015b828111156100fd5782518255916020019190600101906100e2565b5061010992915061010d565b5090565b5b80821115610109576000815560010161010e565b600181811c9082168061013657607f821691505b6020821081141561015757634e487b7160e01b600052602260045260246000fd5b50919050565b6109448061016c6000396000f3fe608060405234801561001057600080fd5b506004361061007d5760003560e01c806370a082311161005b57806370a08231146100dd57806393ab6e56146100f057806395d89b4114610103578063d85d3d271461010b57600080fd5b806306fdde031461008257806318160ddd146100a05780636352211e146100b2575b600080fd5b61008a610120565b604051610097919061072f565b60405180910390f35b6002545b604051908152602001610097565b6100c56100c0366004610762565b6101b2565b6040516001600160a01b039091168152602001610097565b6100a46100eb36600461077b565b610237565b61008a6100fe366004610762565b6102ab565b61008a610357565b61011e6101193660046107c1565b610366565b005b60606006805461012f90610872565b80601f016020809104026020016040519081016040528092919081815260200182805461015b90610872565b80156101a85780601f1061017d576101008083540402835291602001916101a8565b820191906000526020600020905b81548152906001019060200180831161018b57829003601f168201915b5050505050905090565b6000818152602081905260408120546001600160a01b0316806102315760405162461bcd60e51b815260206004820152602c60248201527f4552433732313a20546f6b656e206f776e6572206d757374206265206120766160448201526b3634b21030b2323932b9b99760a11b60648201526084015b60405180910390fd5b92915050565b60006001600160a01b03821661028f5760405162461bcd60e51b815260206004820181905260248201527f4552433732313a204d75737420626520612076616c696420616464726573732e6044820152606401610228565b506001600160a01b031660009081526001602052604090205490565b600881815481106102bb57600080fd5b9060005260206000200160009150905080546102d690610872565b80601f016020809104026020016040519081016040528092919081815260200182805461030290610872565b801561034f5780601f106103245761010080835404028352916020019161034f565b820191906000526020600020905b81548152906001019060200180831161033257829003601f168201915b505050505081565b60606007805461012f90610872565b60098160405161037691906108ad565b9081526040519081900360200190205460ff16156103d65760405162461bcd60e51b815260206004820181905260248201527f4572726f723a204b727970746f4269726420616c7265616479206578697374736044820152606401610228565b600880546001810182556000919091528151610419917ff3f7a9fe364faab93b216da50a3214154f22a0a2b415b23a84c8169e8b636ee301906020840190610666565b5060085460009061042c906001906108df565b9050610438338261046e565b600160098360405161044a91906108ad565b908152604051908190036020019020805491151560ff199092169190911790555050565b61047882826104ff565b6104c081600280546000838152600360205260408120829055600182018355919091527f405787fa12a823e0f2b7631cc41b3ba8828b3321ca811111fa75cd3aa3bb5ace0155565b6001600160a01b039190911660009081526004602081815260408084208054868652600584529185208290559282526001810183559183529091200155565b6001600160a01b0382166105675760405162461bcd60e51b815260206004820152602960248201527f4552433732313a204d696e74696e672061646472657373206d757374206e6f74604482015268103132903d32b9379760b91b6064820152608401610228565b6000818152602081905260409020546001600160a01b0316156105df5760405162461bcd60e51b815260206004820152602a60248201527f4552433732313a2054686520746f6b656e2068617320616c726561647920626560448201526932b71036b4b73a32b21760b11b6064820152608401610228565b60008181526020818152604080832080546001600160a01b0319166001600160a01b038716908117909155835260019182905282208054919290916106259084906108f6565b909155505060405181906001600160a01b038416906000907fddf252ad1be2c89b69c2b068fc378daa952ba7f163c4a11628f55a4df523b3ef908290a45050565b82805461067290610872565b90600052602060002090601f01602090048101928261069457600085556106da565b82601f106106ad57805160ff19168380011785556106da565b828001600101855582156106da579182015b828111156106da5782518255916020019190600101906106bf565b506106e69291506106ea565b5090565b5b808211156106e657600081556001016106eb565b60005b8381101561071a578181015183820152602001610702565b83811115610729576000848401525b50505050565b602081526000825180602084015261074e8160408501602087016106ff565b601f01601f19169190910160400192915050565b60006020828403121561077457600080fd5b5035919050565b60006020828403121561078d57600080fd5b81356001600160a01b03811681146107a457600080fd5b9392505050565b634e487b7160e01b600052604160045260246000fd5b6000602082840312156107d357600080fd5b813567ffffffffffffffff808211156107eb57600080fd5b818401915084601f8301126107ff57600080fd5b813581811115610811576108116107ab565b604051601f8201601f19908116603f01168101908382118183101715610839576108396107ab565b8160405282815287602084870101111561085257600080fd5b826020860160208301376000928101602001929092525095945050505050565b600181811c9082168061088657607f821691505b602082108114156108a757634e487b7160e01b600052602260045260246000fd5b50919050565b600082516108bf8184602087016106ff565b9190910192915050565b634e487b7160e01b600052601160045260246000fd5b6000828210156108f1576108f16108c9565b500390565b60008219821115610909576109096108c9565b50019056fea26469706673582212206c971a81949032917af5aa79ebc01f848550c94fcabbbae8dfb7aca5b7f31fff64736f6c634300080a0033",
  "immutableReferences": {},
  "source": "// SPDX-License-Identifier: MIT\npragma solidity ^0.8.0;\n\nimport \"./ERC721Connector.sol\";\n\ncontract KryptoBird is ERC721Connector {\n    // Array to store our NFTs\n    string[] public kryptoBirdz;\n\n    mapping(string => bool) isKryptoBirdExist;\n\n    function mint(string memory _kryptoBird) public {\n        require(\n            !isKryptoBirdExist[_kryptoBird],\n            \"Error: KryptoBird already exists\"\n        );\n\n        kryptoBirdz.push(_kryptoBird);\n        uint256 id = kryptoBirdz.length - 1;\n        super.mint(msg.sender, id);\n\n        // Mark this KryptoBird as already minted\n        isKryptoBirdExist[_kryptoBird] = true;\n    }\n\n    constructor() ERC721Connector(\"KryptoBird\", \"KBIRDZ\") {}\n}\n",
  "sourcePath": "/home/sergey/Projects/Education/nft-marketplace-starter-kit/src/contracts/KryptoBirdz.sol",
  "compiler": {
    "name": "solc",
    "version": "0.8.10+commit.fc410830.Emscripten.clang"
  },
  "schemaVersion": "3.4.3",
  "updatedAt": "2021-12-15T09:06:44.412Z",
  "devdoc": {
    "kind": "dev",
    "methods": {
      "balanceOf(address)": {
        "details": "NFTs assigned to the zero address are considered invalid, and this  function throws for queries about the zero address.",
        "params": {
          "_owner": "An address for whom to query the balance"
        },
        "returns": {
          "_0": "The number of NFTs owned by `_owner`, possibly zero"
        }
      },
      "ownerOf(uint256)": {
        "details": "NFTs assigned to zero address are considered invalid, and queries  about them do throw.",
        "params": {
          "_tokenId": "The identifier for an NFT"
        },
        "returns": {
          "_0": "The address of the owner of the NFT"
        }
      },
      "totalSupply()": {
        "returns": {
          "_0": "A count of valid NFTs tracked by this contract, where each one of  them has an assigned and queryable owner not equal to the zero address"
        }
      }
    },
    "version": 1
  },
  "userdoc": {
    "kind": "user",
    "methods": {
      "balanceOf(address)": {
        "notice": "Count all NFTs assigned to an owner"
      },
      "name()": {
        "notice": "name getter "
      },
      "ownerOf(uint256)": {
        "notice": "Find the owner of an NFT"
      },
      "symbol()": {
        "notice": "sumbol getter "
      },
      "totalSupply()": {
        "notice": "Count NFTs tracked by this contract"
      }
    },
    "version": 1
  }
}