{
  "contractName": "KryptoBird",
  "abi": [
    {
      "inputs": [],
      "stateMutability": "nonpayable",
      "type": "constructor"
    },
    {
      "anonymous": false,
      "inputs": [
        {
          "indexed": true,
          "internalType": "address",
          "name": "_from",
          "type": "address"
        },
        {
          "indexed": true,
          "internalType": "address",
          "name": "_to",
          "type": "address"
        },
        {
          "indexed": true,
          "internalType": "uint256",
          "name": "_tokenId",
          "type": "uint256"
        }
      ],
      "name": "Transfer",
      "type": "event"
    },
    {
      "inputs": [
        {
          "internalType": "address",
          "name": "_owner",
          "type": "address"
        }
      ],
      "name": "balanceOf",
      "outputs": [
        {
          "internalType": "uint256",
          "name": "",
          "type": "uint256"
        }
      ],
      "stateMutability": "view",
      "type": "function",
      "constant": true
    },
    {
      "inputs": [
        {
          "internalType": "uint256",
          "name": "",
          "type": "uint256"
        }
      ],
      "name": "kryptoBirdz",
      "outputs": [
        {
          "internalType": "string",
          "name": "",
          "type": "string"
        }
      ],
      "stateMutability": "view",
      "type": "function",
      "constant": true
    },
    {
      "inputs": [],
      "name": "name",
      "outputs": [
        {
          "internalType": "string",
          "name": "",
          "type": "string"
        }
      ],
      "stateMutability": "view",
      "type": "function",
      "constant": true
    },
    {
      "inputs": [
        {
          "internalType": "uint256",
          "name": "_tokenId",
          "type": "uint256"
        }
      ],
      "name": "ownerOf",
      "outputs": [
        {
          "internalType": "address",
          "name": "",
          "type": "address"
        }
      ],
      "stateMutability": "view",
      "type": "function",
      "constant": true
    },
    {
      "inputs": [],
      "name": "symbol",
      "outputs": [
        {
          "internalType": "string",
          "name": "",
          "type": "string"
        }
      ],
      "stateMutability": "view",
      "type": "function",
      "constant": true
    },
    {
      "inputs": [
        {
          "internalType": "uint256",
          "name": "_index",
          "type": "uint256"
        }
      ],
      "name": "tokenByIndex",
      "outputs": [
        {
          "internalType": "uint256",
          "name": "",
          "type": "uint256"
        }
      ],
      "stateMutability": "view",
      "type": "function",
      "constant": true
    },
    {
      "inputs": [
        {
          "internalType": "address",
          "name": "_owner",
          "type": "address"
        },
        {
          "internalType": "uint256",
          "name": "_index",
          "type": "uint256"
        }
      ],
      "name": "tokenofOwnerByIndex",
      "outputs": [
        {
          "internalType": "uint256",
          "name": "",
          "type": "uint256"
        }
      ],
      "stateMutability": "view",
      "type": "function",
      "constant": true
    },
    {
      "inputs": [],
      "name": "totalSupply",
      "outputs": [
        {
          "internalType": "uint256",
          "name": "",
          "type": "uint256"
        }
      ],
      "stateMutability": "view",
      "type": "function",
      "constant": true
    },
    {
      "inputs": [
        {
          "internalType": "string",
          "name": "_kryptoBird",
          "type": "string"
        }
      ],
      "name": "mint",
      "outputs": [],
      "stateMutability": "nonpayable",
      "type": "function"
    }
  ],
  "bytecode": "0x608060405234801561001057600080fd5b506040518060400160405280600a81526020016912dc9e5c1d1bd09a5c9960b21b8152506040518060400160405280600681526020016525a124a9222d60d11b8152508181816006908051906020019061006b929190610089565b50805161007f906007906020840190610089565b505050505061015d565b82805461009590610122565b90600052602060002090601f0160209004810192826100b757600085556100fd565b82601f106100d057805160ff19168380011785556100fd565b828001600101855582156100fd579182015b828111156100fd5782518255916020019190600101906100e2565b5061010992915061010d565b5090565b5b80821115610109576000815560010161010e565b600181811c9082168061013657607f821691505b6020821081141561015757634e487b7160e01b600052602260045260246000fd5b50919050565b610b0d8061016c6000396000f3fe608060405234801561001057600080fd5b50600436106100935760003560e01c80636352211e116100665780636352211e146100ee57806370a082311461011957806393ab6e561461012c57806395d89b411461013f578063d85d3d271461014757600080fd5b806306fdde031461009857806318160ddd146100b65780632ffa30c1146100c85780634f6ccce7146100db575b600080fd5b6100a061015c565b6040516100ad91906108aa565b60405180910390f35b6002545b6040519081526020016100ad565b6100ba6100d63660046108f9565b6101ee565b6100ba6100e9366004610923565b6102a3565b6101016100fc366004610923565b610332565b6040516001600160a01b0390911681526020016100ad565b6100ba61012736600461093c565b6103b2565b6100a061013a366004610923565b610426565b6100a06104d2565b61015a610155366004610974565b6104e1565b005b60606006805461016b90610a25565b80601f016020809104026020016040519081016040528092919081815260200182805461019790610a25565b80156101e45780601f106101b9576101008083540402835291602001916101e4565b820191906000526020600020905b8154815290600101906020018083116101c757829003601f168201915b5050505050905090565b60006101f9836103b2565b82106102665760405162461bcd60e51b815260206004820152603160248201527f4572726f723a2054686520696e646578206f66206f776e656420746f6b656e73604482015270206973206f7574206f6620626f756e647360781b60648201526084015b60405180910390fd5b6001600160a01b038316600090815260046020526040902080548390811061029057610290610a60565b9060005260206000200154905092915050565b60006102ae60025490565b821061030d5760405162461bcd60e51b815260206004820152602860248201527f4572726f723a20476c6f62616c20737570706c7920696e646578206f7574206f6044820152676620626f756e647360c01b606482015260840161025d565b6002828154811061032057610320610a60565b90600052602060002001549050919050565b6000818152602081905260408120546001600160a01b0316806103ac5760405162461bcd60e51b815260206004820152602c60248201527f4552433732313a20546f6b656e206f776e6572206d757374206265206120766160448201526b3634b21030b2323932b9b99760a11b606482015260840161025d565b92915050565b60006001600160a01b03821661040a5760405162461bcd60e51b815260206004820181905260248201527f4552433732313a204d75737420626520612076616c696420616464726573732e604482015260640161025d565b506001600160a01b031660009081526001602052604090205490565b6008818154811061043657600080fd5b90600052602060002001600091509050805461045190610a25565b80601f016020809104026020016040519081016040528092919081815260200182805461047d90610a25565b80156104ca5780601f1061049f576101008083540402835291602001916104ca565b820191906000526020600020905b8154815290600101906020018083116104ad57829003601f168201915b505050505081565b60606007805461016b90610a25565b6009816040516104f19190610a76565b9081526040519081900360200190205460ff16156105515760405162461bcd60e51b815260206004820181905260248201527f4572726f723a204b727970746f4269726420616c726561647920657869737473604482015260640161025d565b600880546001810182556000919091528151610594917ff3f7a9fe364faab93b216da50a3214154f22a0a2b415b23a84c8169e8b636ee3019060208401906107e1565b506008546000906105a790600190610aa8565b90506105b333826105e9565b60016009836040516105c59190610a76565b908152604051908190036020019020805491151560ff199092169190911790555050565b6105f3828261067a565b61063b81600280546000838152600360205260408120829055600182018355919091527f405787fa12a823e0f2b7631cc41b3ba8828b3321ca811111fa75cd3aa3bb5ace0155565b6001600160a01b039190911660009081526004602081815260408084208054868652600584529185208290559282526001810183559183529091200155565b6001600160a01b0382166106e25760405162461bcd60e51b815260206004820152602960248201527f4552433732313a204d696e74696e672061646472657373206d757374206e6f74604482015268103132903d32b9379760b91b606482015260840161025d565b6000818152602081905260409020546001600160a01b03161561075a5760405162461bcd60e51b815260206004820152602a60248201527f4552433732313a2054686520746f6b656e2068617320616c726561647920626560448201526932b71036b4b73a32b21760b11b606482015260840161025d565b60008181526020818152604080832080546001600160a01b0319166001600160a01b038716908117909155835260019182905282208054919290916107a0908490610abf565b909155505060405181906001600160a01b038416906000907fddf252ad1be2c89b69c2b068fc378daa952ba7f163c4a11628f55a4df523b3ef908290a45050565b8280546107ed90610a25565b90600052602060002090601f01602090048101928261080f5760008555610855565b82601f1061082857805160ff1916838001178555610855565b82800160010185558215610855579182015b8281111561085557825182559160200191906001019061083a565b50610861929150610865565b5090565b5b808211156108615760008155600101610866565b60005b8381101561089557818101518382015260200161087d565b838111156108a4576000848401525b50505050565b60208152600082518060208401526108c981604085016020870161087a565b601f01601f19169190910160400192915050565b80356001600160a01b03811681146108f457600080fd5b919050565b6000806040838503121561090c57600080fd5b610915836108dd565b946020939093013593505050565b60006020828403121561093557600080fd5b5035919050565b60006020828403121561094e57600080fd5b610957826108dd565b9392505050565b634e487b7160e01b600052604160045260246000fd5b60006020828403121561098657600080fd5b813567ffffffffffffffff8082111561099e57600080fd5b818401915084601f8301126109b257600080fd5b8135818111156109c4576109c461095e565b604051601f8201601f19908116603f011681019083821181831017156109ec576109ec61095e565b81604052828152876020848701011115610a0557600080fd5b826020860160208301376000928101602001929092525095945050505050565b600181811c90821680610a3957607f821691505b60208210811415610a5a57634e487b7160e01b600052602260045260246000fd5b50919050565b634e487b7160e01b600052603260045260246000fd5b60008251610a8881846020870161087a565b9190910192915050565b634e487b7160e01b600052601160045260246000fd5b600082821015610aba57610aba610a92565b500390565b60008219821115610ad257610ad2610a92565b50019056fea264697066735822122043cf75ccdb5b7274089ce81db9c7906e43876e05a623d651a0bdac29be59c1bb64736f6c634300080a0033",
  "immutableReferences": {},
  "source": "// SPDX-License-Identifier: MIT\npragma solidity ^0.8.0;\n\nimport \"./ERC721Connector.sol\";\n\ncontract KryptoBird is ERC721Connector {\n    // Array to store our NFTs\n    string[] public kryptoBirdz;\n\n    mapping(string => bool) isKryptoBirdExist;\n\n    function mint(string memory _kryptoBird) public {\n        require(\n            !isKryptoBirdExist[_kryptoBird],\n            \"Error: KryptoBird already exists\"\n        );\n\n        kryptoBirdz.push(_kryptoBird);\n        uint256 id = kryptoBirdz.length - 1;\n        super.mint(msg.sender, id);\n\n        // Mark this KryptoBird as already minted\n        isKryptoBirdExist[_kryptoBird] = true;\n    }\n\n    constructor() ERC721Connector(\"KryptoBird\", \"KBIRDZ\") {}\n}\n",
  "sourcePath": "/home/sergey/Projects/Education/nft-marketplace-starter-kit/src/contracts/KryptoBirdz.sol",
  "compiler": {
    "name": "solc",
    "version": "0.8.10+commit.fc410830.Emscripten.clang"
  },
  "schemaVersion": "3.4.3",
  "updatedAt": "2021-12-16T02:18:29.818Z",
  "networkType": "ethereum",
  "devdoc": {
    "kind": "dev",
    "methods": {
      "balanceOf(address)": {
        "details": "NFTs assigned to the zero address are considered invalid, and this  function throws for queries about the zero address.",
        "params": {
          "_owner": "An address for whom to query the balance"
        },
        "returns": {
          "_0": "The number of NFTs owned by `_owner`, possibly zero"
        }
      },
      "ownerOf(uint256)": {
        "details": "NFTs assigned to zero address are considered invalid, and queries  about them do throw.",
        "params": {
          "_tokenId": "The identifier for an NFT"
        },
        "returns": {
          "_0": "The address of the owner of the NFT"
        }
      },
      "totalSupply()": {
        "returns": {
          "_0": "A count of valid NFTs tracked by this contract, where each one of  them has an assigned and queryable owner not equal to the zero address"
        }
      }
    },
    "version": 1
  },
  "userdoc": {
    "kind": "user",
    "methods": {
      "balanceOf(address)": {
        "notice": "Count all NFTs assigned to an owner"
      },
      "name()": {
        "notice": "name getter "
      },
      "ownerOf(uint256)": {
        "notice": "Find the owner of an NFT"
      },
      "symbol()": {
        "notice": "sumbol getter "
      },
      "tokenByIndex(uint256)": {
        "notice": "Return a token by index"
      },
      "tokenofOwnerByIndex(address,uint256)": {
        "notice": "Return a token by the owner and index in the owned tokens array"
      },
      "totalSupply()": {
        "notice": "Count NFTs tracked by this contract"
      }
    },
    "version": 1
  }
}