{
  "contractName": "KryptoBird",
  "abi": [
    {
      "inputs": [],
      "stateMutability": "nonpayable",
      "type": "constructor"
    },
    {
      "anonymous": false,
      "inputs": [
        {
          "indexed": true,
          "internalType": "address",
          "name": "_from",
          "type": "address"
        },
        {
          "indexed": true,
          "internalType": "address",
          "name": "_to",
          "type": "address"
        },
        {
          "indexed": true,
          "internalType": "uint256",
          "name": "_tokenId",
          "type": "uint256"
        }
      ],
      "name": "Transfer",
      "type": "event"
    },
    {
      "inputs": [
        {
          "internalType": "uint256",
          "name": "",
          "type": "uint256"
        }
      ],
      "name": "kryptoBirdz",
      "outputs": [
        {
          "internalType": "string",
          "name": "",
          "type": "string"
        }
      ],
      "stateMutability": "view",
      "type": "function",
      "constant": true
    },
    {
      "inputs": [],
      "name": "name",
      "outputs": [
        {
          "internalType": "string",
          "name": "",
          "type": "string"
        }
      ],
      "stateMutability": "view",
      "type": "function",
      "constant": true
    },
    {
      "inputs": [],
      "name": "symbol",
      "outputs": [
        {
          "internalType": "string",
          "name": "",
          "type": "string"
        }
      ],
      "stateMutability": "view",
      "type": "function",
      "constant": true
    },
    {
      "inputs": [
        {
          "internalType": "string",
          "name": "_kryptoBird",
          "type": "string"
        }
      ],
      "name": "mint",
      "outputs": [],
      "stateMutability": "nonpayable",
      "type": "function"
    }
  ],
  "bytecode": "0x608060405234801561001057600080fd5b50604080518082018252600a81526912dc9e5c1d1bd09a5c9960b21b60208083019182528351808501909452600684526525a124a9222d60d11b9084015281519192918391839161006391600291610081565b508051610077906003906020840190610081565b5050505050610155565b82805461008d9061011a565b90600052602060002090601f0160209004810192826100af57600085556100f5565b82601f106100c857805160ff19168380011785556100f5565b828001600101855582156100f5579182015b828111156100f55782518255916020019190600101906100da565b50610101929150610105565b5090565b5b808211156101015760008155600101610106565b600181811c9082168061012e57607f821691505b6020821081141561014f57634e487b7160e01b600052602260045260246000fd5b50919050565b61070e806101646000396000f3fe608060405234801561001057600080fd5b506004361061004c5760003560e01c806306fdde031461005157806393ab6e561461006f57806395d89b4114610082578063d85d3d271461008a575b600080fd5b61005961009f565b6040516100669190610529565b60405180910390f35b61005961007d36600461055c565b610131565b6100596101dd565b61009d61009836600461058b565b6101ec565b005b6060600280546100ae9061063c565b80601f01602080910402602001604051908101604052809291908181526020018280546100da9061063c565b80156101275780601f106100fc57610100808354040283529160200191610127565b820191906000526020600020905b81548152906001019060200180831161010a57829003601f168201915b5050505050905090565b6004818154811061014157600080fd5b90600052602060002001600091509050805461015c9061063c565b80601f01602080910402602001604051908101604052809291908181526020018280546101889061063c565b80156101d55780601f106101aa576101008083540402835291602001916101d5565b820191906000526020600020905b8154815290600101906020018083116101b857829003601f168201915b505050505081565b6060600380546100ae9061063c565b6005816040516101fc9190610677565b9081526040519081900360200190205460ff16156102615760405162461bcd60e51b815260206004820181905260248201527f4572726f723a204b727970746f4269726420616c72656164792065786973747360448201526064015b60405180910390fd5b6004805460018101825560009190915281516102a4917f8a35acfbc15ff81a39ae7d344fd709f28e8600b4aa8c65c6b64bfe7fe36bd19b01906020840190610460565b506004546000906102b7906001906106a9565b90506102c333826102f9565b60016005836040516102d59190610677565b908152604051908190036020019020805491151560ff199092169190911790555050565b6001600160a01b0382166103615760405162461bcd60e51b815260206004820152602960248201527f4552433732313a204d696e74696e672061646472657373206d757374206e6f74604482015268103132903d32b9379760b91b6064820152608401610258565b6000818152602081905260409020546001600160a01b0316156103d95760405162461bcd60e51b815260206004820152602a60248201527f4552433732313a2054686520746f6b656e2068617320616c726561647920626560448201526932b71036b4b73a32b21760b11b6064820152608401610258565b60008181526020818152604080832080546001600160a01b0319166001600160a01b0387169081179091558352600191829052822080549192909161041f9084906106c0565b909155505060405181906001600160a01b038416906000907fddf252ad1be2c89b69c2b068fc378daa952ba7f163c4a11628f55a4df523b3ef908290a45050565b82805461046c9061063c565b90600052602060002090601f01602090048101928261048e57600085556104d4565b82601f106104a757805160ff19168380011785556104d4565b828001600101855582156104d4579182015b828111156104d45782518255916020019190600101906104b9565b506104e09291506104e4565b5090565b5b808211156104e057600081556001016104e5565b60005b838110156105145781810151838201526020016104fc565b83811115610523576000848401525b50505050565b60208152600082518060208401526105488160408501602087016104f9565b601f01601f19169190910160400192915050565b60006020828403121561056e57600080fd5b5035919050565b634e487b7160e01b600052604160045260246000fd5b60006020828403121561059d57600080fd5b813567ffffffffffffffff808211156105b557600080fd5b818401915084601f8301126105c957600080fd5b8135818111156105db576105db610575565b604051601f8201601f19908116603f0116810190838211818310171561060357610603610575565b8160405282815287602084870101111561061c57600080fd5b826020860160208301376000928101602001929092525095945050505050565b600181811c9082168061065057607f821691505b6020821081141561067157634e487b7160e01b600052602260045260246000fd5b50919050565b600082516106898184602087016104f9565b9190910192915050565b634e487b7160e01b600052601160045260246000fd5b6000828210156106bb576106bb610693565b500390565b600082198211156106d3576106d3610693565b50019056fea26469706673582212208c3f8e6fe1c1466abd24855b44cf516e664ca54a69b5b51f40ee813cc1e99ea064736f6c634300080a0033",
  "immutableReferences": {},
  "source": "// SPDX-License-Identifier: MIT\npragma solidity ^0.8.0;\n\nimport \"./ERC721Connector.sol\";\n\ncontract KryptoBird is ERC721Connector {\n    // Array to store our NFTs\n    string[] public kryptoBirdz;\n\n    mapping(string => bool) isKryptoBirdExist;\n\n    function mint(string memory _kryptoBird) public {\n        require(\n            !isKryptoBirdExist[_kryptoBird],\n            \"Error: KryptoBird already exists\"\n        );\n\n        kryptoBirdz.push(_kryptoBird);\n        uint256 id = kryptoBirdz.length - 1;\n        super.mint(msg.sender, id);\n\n        // Mark this KryptoBird as already minted\n        isKryptoBirdExist[_kryptoBird] = true;\n    }\n\n    constructor() ERC721Connector(\"KryptoBird\", \"KBIRDZ\") {}\n}\n",
  "sourcePath": "/home/sergey/Projects/Education/nft-marketplace-starter-kit/src/contracts/KryptoBirdz.sol",
  "compiler": {
    "name": "solc",
    "version": "0.8.10+commit.fc410830.Emscripten.clang"
  },
  "schemaVersion": "3.4.3",
  "updatedAt": "2021-12-15T04:59:09.273Z",
  "networkType": "ethereum",
  "devdoc": {
    "kind": "dev",
    "methods": {},
    "version": 1
  },
  "userdoc": {
    "kind": "user",
    "methods": {
      "name()": {
        "notice": "name getter "
      },
      "symbol()": {
        "notice": "sumbol getter "
      }
    },
    "version": 1
  }
}