{
  "contractName": "KryptoBird",
  "abi": [
    {
      "inputs": [],
      "stateMutability": "nonpayable",
      "type": "constructor"
    },
    {
      "anonymous": false,
      "inputs": [
        {
          "indexed": true,
          "internalType": "address",
          "name": "_owner",
          "type": "address"
        },
        {
          "indexed": true,
          "internalType": "address",
          "name": "_approved",
          "type": "address"
        },
        {
          "indexed": true,
          "internalType": "uint256",
          "name": "_tokenId",
          "type": "uint256"
        }
      ],
      "name": "Approval",
      "type": "event"
    },
    {
      "anonymous": false,
      "inputs": [
        {
          "indexed": true,
          "internalType": "address",
          "name": "_from",
          "type": "address"
        },
        {
          "indexed": true,
          "internalType": "address",
          "name": "_to",
          "type": "address"
        },
        {
          "indexed": true,
          "internalType": "uint256",
          "name": "_tokenId",
          "type": "uint256"
        }
      ],
      "name": "Transfer",
      "type": "event"
    },
    {
      "inputs": [
        {
          "internalType": "address",
          "name": "_approved",
          "type": "address"
        },
        {
          "internalType": "uint256",
          "name": "_tokenId",
          "type": "uint256"
        }
      ],
      "name": "approve",
      "outputs": [],
      "stateMutability": "payable",
      "type": "function",
      "payable": true
    },
    {
      "inputs": [
        {
          "internalType": "address",
          "name": "_owner",
          "type": "address"
        }
      ],
      "name": "balanceOf",
      "outputs": [
        {
          "internalType": "uint256",
          "name": "",
          "type": "uint256"
        }
      ],
      "stateMutability": "view",
      "type": "function",
      "constant": true
    },
    {
      "inputs": [
        {
          "internalType": "uint256",
          "name": "",
          "type": "uint256"
        }
      ],
      "name": "kryptoBirdz",
      "outputs": [
        {
          "internalType": "string",
          "name": "",
          "type": "string"
        }
      ],
      "stateMutability": "view",
      "type": "function",
      "constant": true
    },
    {
      "inputs": [],
      "name": "name",
      "outputs": [
        {
          "internalType": "string",
          "name": "",
          "type": "string"
        }
      ],
      "stateMutability": "view",
      "type": "function",
      "constant": true
    },
    {
      "inputs": [
        {
          "internalType": "uint256",
          "name": "_tokenId",
          "type": "uint256"
        }
      ],
      "name": "ownerOf",
      "outputs": [
        {
          "internalType": "address",
          "name": "",
          "type": "address"
        }
      ],
      "stateMutability": "view",
      "type": "function",
      "constant": true
    },
    {
      "inputs": [
        {
          "internalType": "bytes4",
          "name": "interfaceID",
          "type": "bytes4"
        }
      ],
      "name": "supportsInterface",
      "outputs": [
        {
          "internalType": "bool",
          "name": "",
          "type": "bool"
        }
      ],
      "stateMutability": "view",
      "type": "function",
      "constant": true
    },
    {
      "inputs": [],
      "name": "symbol",
      "outputs": [
        {
          "internalType": "string",
          "name": "",
          "type": "string"
        }
      ],
      "stateMutability": "view",
      "type": "function",
      "constant": true
    },
    {
      "inputs": [
        {
          "internalType": "uint256",
          "name": "_index",
          "type": "uint256"
        }
      ],
      "name": "tokenByIndex",
      "outputs": [
        {
          "internalType": "uint256",
          "name": "",
          "type": "uint256"
        }
      ],
      "stateMutability": "view",
      "type": "function",
      "constant": true
    },
    {
      "inputs": [
        {
          "internalType": "address",
          "name": "_owner",
          "type": "address"
        },
        {
          "internalType": "uint256",
          "name": "_index",
          "type": "uint256"
        }
      ],
      "name": "tokenOfOwnerByIndex",
      "outputs": [
        {
          "internalType": "uint256",
          "name": "",
          "type": "uint256"
        }
      ],
      "stateMutability": "view",
      "type": "function",
      "constant": true
    },
    {
      "inputs": [],
      "name": "totalSupply",
      "outputs": [
        {
          "internalType": "uint256",
          "name": "",
          "type": "uint256"
        }
      ],
      "stateMutability": "view",
      "type": "function",
      "constant": true
    },
    {
      "inputs": [
        {
          "internalType": "address",
          "name": "_from",
          "type": "address"
        },
        {
          "internalType": "address",
          "name": "_to",
          "type": "address"
        },
        {
          "internalType": "uint256",
          "name": "_tokenId",
          "type": "uint256"
        }
      ],
      "name": "transferFrom",
      "outputs": [],
      "stateMutability": "payable",
      "type": "function",
      "payable": true
    },
    {
      "inputs": [
        {
          "internalType": "string",
          "name": "_kryptoBird",
          "type": "string"
        }
      ],
      "name": "mint",
      "outputs": [],
      "stateMutability": "nonpayable",
      "type": "function"
    }
  ],
  "bytecode": "0x60806040523480156200001157600080fd5b506040518060400160405280600a81526020016912dc9e5c1d1bd09a5c9960b21b8152506040518060400160405280600681526020016525a124a9222d60d11b8152508181620000877f01ffc9a7a5cef8baa21ed3c5c0d7e23accb804b619e9333b597f47a0d84076e2620000bd60201b60201c565b81516200009c90600890602085019062000141565b508051620000b290600990602084019062000141565b505050505062000224565b6001600160e01b031981811614156200011c5760405162461bcd60e51b815260206004820152601a60248201527f4552433136353a20496e76616c696420696e746572666163652e000000000000604482015260640160405180910390fd5b6001600160e01b0319166000908152602081905260409020805460ff19166001179055565b8280546200014f90620001e7565b90600052602060002090601f016020900481019282620001735760008555620001be565b82601f106200018e57805160ff1916838001178555620001be565b82800160010185558215620001be579182015b82811115620001be578251825591602001919060010190620001a1565b50620001cc929150620001d0565b5090565b5b80821115620001cc5760008155600101620001d1565b600181811c90821680620001fc57607f821691505b602082108114156200021e57634e487b7160e01b600052602260045260246000fd5b50919050565b61105a80620002346000396000f3fe6080604052600436106100a75760003560e01c80634f6ccce7116100645780634f6ccce7146101845780636352211e146101a457806370a08231146101dc57806393ab6e56146101fc57806395d89b411461021c578063d85d3d271461023157600080fd5b806301ffc9a7146100ac57806306fdde03146100fb578063095ea7b31461011d57806318160ddd1461013257806323b872dd146101515780632f745c5914610164575b600080fd5b3480156100b857600080fd5b506100e66100c7366004610d2f565b6001600160e01b03191660009081526020819052604090205460ff1690565b60405190151581526020015b60405180910390f35b34801561010757600080fd5b50610110610251565b6040516100f29190610d90565b61013061012b366004610ddf565b6102e3565b005b34801561013e57600080fd5b506004545b6040519081526020016100f2565b61013061015f366004610e09565b610434565b34801561017057600080fd5b5061014361017f366004610ddf565b610457565b34801561019057600080fd5b5061014361019f366004610e45565b610507565b3480156101b057600080fd5b506101c46101bf366004610e45565b610596565b6040516001600160a01b0390911681526020016100f2565b3480156101e857600080fd5b506101436101f7366004610e5e565b610616565b34801561020857600080fd5b50610110610217366004610e45565b61068a565b34801561022857600080fd5b50610110610736565b34801561023d57600080fd5b5061013061024c366004610e8f565b610745565b60606008805461026090610f40565b80601f016020809104026020016040519081016040528092919081815260200182805461028c90610f40565b80156102d95780601f106102ae576101008083540402835291602001916102d9565b820191906000526020600020905b8154815290600101906020018083116102bc57829003601f168201915b5050505050905090565b60006102ee82610596565b9050806001600160a01b0316836001600160a01b031614156103635760405162461bcd60e51b8152602060048201526024808201527f4572726f723a20417070726f76616c20746f207468652063757272656e74206f6044820152633bb732b960e11b60648201526084015b60405180910390fd5b336001600160a01b038216146103d85760405162461bcd60e51b815260206004820152603460248201527f4572726f723a204d6573736167652073656e646572206d75737420626520616e6044820152731037bbb732b91037b3103a3432903a37b5b2b71760611b606482015260840161035a565b60008281526003602052604080822080546001600160a01b0319166001600160a01b0387811691821790925591518593918516917f8c5be1e5ebec7d5bd14f71427d1e84f3dd0314c0f7b2291e5b200ac8c7c3b92591a4505050565b61043e338261084d565b61044757600080fd5b6104528383836108ff565b505050565b600061046283610616565b82106104ca5760405162461bcd60e51b815260206004820152603160248201527f4572726f723a2054686520696e646578206f66206f776e656420746f6b656e73604482015270206973206f7574206f6620626f756e647360781b606482015260840161035a565b6001600160a01b03831660009081526006602052604090208054839081106104f4576104f4610f7b565b9060005260206000200154905092915050565b600061051260045490565b82106105715760405162461bcd60e51b815260206004820152602860248201527f4572726f723a20476c6f62616c20737570706c7920696e646578206f7574206f6044820152676620626f756e647360c01b606482015260840161035a565b6004828154811061058457610584610f7b565b90600052602060002001549050919050565b6000818152600160205260408120546001600160a01b0316806106105760405162461bcd60e51b815260206004820152602c60248201527f4552433732313a20546f6b656e206f776e6572206d757374206265206120766160448201526b3634b21030b2323932b9b99760a11b606482015260840161035a565b92915050565b60006001600160a01b03821661066e5760405162461bcd60e51b815260206004820181905260248201527f4552433732313a204d75737420626520612076616c696420616464726573732e604482015260640161035a565b506001600160a01b031660009081526002602052604090205490565b600a818154811061069a57600080fd5b9060005260206000200160009150905080546106b590610f40565b80601f01602080910402602001604051908101604052809291908181526020018280546106e190610f40565b801561072e5780601f106107035761010080835404028352916020019161072e565b820191906000526020600020905b81548152906001019060200180831161071157829003601f168201915b505050505081565b60606009805461026090610f40565b600b816040516107559190610f91565b9081526040519081900360200190205460ff16156107b55760405162461bcd60e51b815260206004820181905260248201527f4572726f723a204b727970746f4269726420616c726561647920657869737473604482015260640161035a565b600a805460018101825560009190915281516107f8917fc65a7bb8d6351c1cf70c95a316cc6a92839c986682d98bc35f958f4883f9d2a801906020840190610c96565b50600a5460009061080b90600190610fc3565b90506108173382610a9d565b6001600b836040516108299190610f91565b908152604051908190036020019020805491151560ff199092169190911790555050565b6000818152600160205260408120546001600160a01b03166108b15760405162461bcd60e51b815260206004820152601c60248201527f4572726f723a20546f6b656e20646f6573206e6f742065786973742e00000000604482015260640161035a565b60006108bc83610596565b9050806001600160a01b0316846001600160a01b031614806108f757506000838152600360205260409020546001600160a01b038581169116145b949350505050565b6001600160a01b0382166109695760405162461bcd60e51b815260206004820152602b60248201527f4572726f72202d20455243373231205472616e7366657220746f20746865207a60448201526a65726f206164647265737360a81b606482015260840161035a565b826001600160a01b031661097c82610596565b6001600160a01b0316146109ef5760405162461bcd60e51b815260206004820152603460248201527f547279696e6720746f207472616e73666572206120746f6b656e20746865206160448201527364647265737320646f6573206e6f74206f776e2160601b606482015260840161035a565b6001600160a01b0383166000908152600260205260408120805491610a1383610fda565b90915550506001600160a01b0382166000908152600260205260408120805491610a3c83610ff1565b909155505060008181526001602052604080822080546001600160a01b0319166001600160a01b0386811691821790925591518493918716917fddf252ad1be2c89b69c2b068fc378daa952ba7f163c4a11628f55a4df523b3ef91a4505050565b610aa78282610b2e565b610aef81600480546000838152600560205260408120829055600182018355919091527f8a35acfbc15ff81a39ae7d344fd709f28e8600b4aa8c65c6b64bfe7fe36bd19b0155565b6001600160a01b039190911660009081526006602081815260408084208054868652600784529185208290559282526001810183559183529091200155565b6001600160a01b038216610b965760405162461bcd60e51b815260206004820152602960248201527f4552433732313a204d696e74696e672061646472657373206d757374206e6f74604482015268103132903d32b9379760b91b606482015260840161035a565b6000818152600160205260409020546001600160a01b031615610c0e5760405162461bcd60e51b815260206004820152602a60248201527f4552433732313a2054686520746f6b656e2068617320616c726561647920626560448201526932b71036b4b73a32b21760b11b606482015260840161035a565b600081815260016020818152604080842080546001600160a01b0319166001600160a01b038816908117909155845260029091528220805491929091610c5590849061100c565b909155505060405181906001600160a01b038416906000907fddf252ad1be2c89b69c2b068fc378daa952ba7f163c4a11628f55a4df523b3ef908290a45050565b828054610ca290610f40565b90600052602060002090601f016020900481019282610cc45760008555610d0a565b82601f10610cdd57805160ff1916838001178555610d0a565b82800160010185558215610d0a579182015b82811115610d0a578251825591602001919060010190610cef565b50610d16929150610d1a565b5090565b5b80821115610d165760008155600101610d1b565b600060208284031215610d4157600080fd5b81356001600160e01b031981168114610d5957600080fd5b9392505050565b60005b83811015610d7b578181015183820152602001610d63565b83811115610d8a576000848401525b50505050565b6020815260008251806020840152610daf816040850160208701610d60565b601f01601f19169190910160400192915050565b80356001600160a01b0381168114610dda57600080fd5b919050565b60008060408385031215610df257600080fd5b610dfb83610dc3565b946020939093013593505050565b600080600060608486031215610e1e57600080fd5b610e2784610dc3565b9250610e3560208501610dc3565b9150604084013590509250925092565b600060208284031215610e5757600080fd5b5035919050565b600060208284031215610e7057600080fd5b610d5982610dc3565b634e487b7160e01b600052604160045260246000fd5b600060208284031215610ea157600080fd5b813567ffffffffffffffff80821115610eb957600080fd5b818401915084601f830112610ecd57600080fd5b813581811115610edf57610edf610e79565b604051601f8201601f19908116603f01168101908382118183101715610f0757610f07610e79565b81604052828152876020848701011115610f2057600080fd5b826020860160208301376000928101602001929092525095945050505050565b600181811c90821680610f5457607f821691505b60208210811415610f7557634e487b7160e01b600052602260045260246000fd5b50919050565b634e487b7160e01b600052603260045260246000fd5b60008251610fa3818460208701610d60565b9190910192915050565b634e487b7160e01b600052601160045260246000fd5b600082821015610fd557610fd5610fad565b500390565b600081610fe957610fe9610fad565b506000190190565b600060001982141561100557611005610fad565b5060010190565b6000821982111561101f5761101f610fad565b50019056fea2646970667358221220270af444341f10de580f537c4001543f9818681d75d519ba45f2706054716d4464736f6c634300080a0033",
  "immutableReferences": {},
  "source": "// SPDX-License-Identifier: MIT\npragma solidity ^0.8.0;\n\nimport \"./ERC721Connector.sol\";\n\ncontract KryptoBird is ERC721Connector {\n    // Array to store our NFTs\n    string[] public kryptoBirdz;\n\n    mapping(string => bool) isKryptoBirdExist;\n\n    function mint(string memory _kryptoBird) public {\n        require(\n            !isKryptoBirdExist[_kryptoBird],\n            \"Error: KryptoBird already exists\"\n        );\n\n        kryptoBirdz.push(_kryptoBird);\n        uint256 id = kryptoBirdz.length - 1;\n        super.mint(msg.sender, id);\n\n        // Mark this KryptoBird as already minted\n        isKryptoBirdExist[_kryptoBird] = true;\n    }\n\n    constructor() ERC721Connector(\"KryptoBird\", \"KBIRDZ\") {}\n}\n",
  "sourcePath": "/home/sergey/Projects/Education/nft-marketplace-starter-kit/src/contracts/KryptoBirdz.sol",
  "compiler": {
    "name": "solc",
    "version": "0.8.10+commit.fc410830.Emscripten.clang"
  },
  "schemaVersion": "3.4.3",
  "updatedAt": "2021-12-18T05:56:44.917Z",
  "networkType": "ethereum",
  "devdoc": {
    "kind": "dev",
    "methods": {
      "approve(address,uint256)": {
        "details": "The zero address indicates there is no approved address.  Throws unless `msg.sender` is the current NFT owner, or an authorized  operator of the current owner.",
        "params": {
          "_approved": "The new approved NFT controller",
          "_tokenId": "The NFT to approve"
        }
      },
      "balanceOf(address)": {
        "details": "NFTs assigned to the zero address are considered invalid, and this  function throws for queries about the zero address.",
        "params": {
          "_owner": "An address for whom to query the balance"
        },
        "returns": {
          "_0": "The number of NFTs owned by `_owner`, possibly zero"
        }
      },
      "ownerOf(uint256)": {
        "details": "NFTs assigned to zero address are considered invalid, and queries  about them do throw.",
        "params": {
          "_tokenId": "The identifier for an NFT"
        },
        "returns": {
          "_0": "The address of the owner of the NFT"
        }
      },
      "supportsInterface(bytes4)": {
        "details": "Interface identification is specified in ERC-165. This function  uses less than 30,000 gas.",
        "params": {
          "interfaceID": "The interface identifier, as specified in ERC-165"
        },
        "returns": {
          "_0": "`true` if the contract implements `interfaceID` and  `interfaceID` is not 0xffffffff, `false` otherwise"
        }
      },
      "tokenByIndex(uint256)": {
        "details": "Throws if `_index` >= `totalSupply()`.",
        "params": {
          "_index": "A counter less than `totalSupply()`"
        },
        "returns": {
          "_0": "The token identifier for the `_index`th NFT,  (sort order not specified)"
        }
      },
      "tokenOfOwnerByIndex(address,uint256)": {
        "details": "Throws if `_index` >= `balanceOf(_owner)` or if  `_owner` is the zero address, representing invalid NFTs.",
        "params": {
          "_index": "A counter less than `balanceOf(_owner)`",
          "_owner": "An address where we are interested in NFTs owned by them"
        },
        "returns": {
          "_0": "The token identifier for the `_index`th NFT assigned to `_owner`,   (sort order not specified)"
        }
      },
      "totalSupply()": {
        "returns": {
          "_0": "A count of valid NFTs tracked by this contract, where each one of  them has an assigned and queryable owner not equal to the zero address"
        }
      },
      "transferFrom(address,address,uint256)": {
        "details": "Throws unless `msg.sender` is the current owner, an authorized  operator, or the approved address for this NFT. Throws if `_from` is  not the current owner. Throws if `_to` is the zero address. Throws if  `_tokenId` is not a valid NFT.",
        "params": {
          "_from": "The current owner of the NFT",
          "_to": "The new owner",
          "_tokenId": "The NFT to transfer"
        }
      }
    },
    "version": 1
  },
  "userdoc": {
    "kind": "user",
    "methods": {
      "approve(address,uint256)": {
        "notice": "Change or reaffirm the approved address for an NFT"
      },
      "balanceOf(address)": {
        "notice": "Count all NFTs assigned to an owner"
      },
      "name()": {
        "notice": "name getter "
      },
      "ownerOf(uint256)": {
        "notice": "Find the owner of an NFT"
      },
      "supportsInterface(bytes4)": {
        "notice": "Query if a contract implements an interface"
      },
      "symbol()": {
        "notice": "sumbol getter "
      },
      "tokenByIndex(uint256)": {
        "notice": "Enumerate valid NFTs"
      },
      "tokenOfOwnerByIndex(address,uint256)": {
        "notice": "Enumerate NFTs assigned to an owner"
      },
      "totalSupply()": {
        "notice": "Count NFTs tracked by this contract"
      },
      "transferFrom(address,address,uint256)": {
        "notice": "Transfer ownership of an NFT -- THE CALLER IS RESPONSIBLE  TO CONFIRM THAT `_to` IS CAPABLE OF RECEIVING NFTS OR ELSE  THEY MAY BE PERMANENTLY LOST"
      }
    },
    "version": 1
  }
}